:020000040800F2
:1000000000000220414000084D3F00084F3F00081B
:10001000513F0008533F0008553F00080000000012
:10002000000000000000000000000000573F000832
:10003000593F0008000000005B3F00085D3F0008DA
:10004000914000089140000891400008914000084C
:100050009140000891400008653F00086F3F00088C
:10006000793F0008833F00088D3F00089140000859
:10007000914000089140000891400008914000081C
:10008000993F000891400008914000089140000805
:10009000914000089140000891400008A93F0008E5
:1000A00091400008914000089140000891400008EC
:1000B000C93F0008914000089140000891400008A5
:1000C00091400008914000089140000891400008CC
:1000D00091400008914000089140000891400008BC
:1000E000D93F000891400008914000089140000865
:1000F000914000089140000891400008914000089C
:10010000914000089140000891400008914000088B
:10011000914000089140000891400008914000087B
:10012000914000089140000891400008914000086B
:10013000914000089140000891400008914000085B
:10014000914000089140000891400008914000084B
:10015000914000089140000891400008914000083B
:10016000914000089140000891400008914000082B
:1001700091400008914000089140000800000000F4
:080180009140000891400008C5
:1001880010B5054C237833B9044B13B10448AFF3C9
:1001980000800123237010BD0C0000200000000027
:1001A800AC4E000808B5034B1BB103490348AFF335
:1001B800008008BD0000000010000020AC4E0008C0
:1001C80081F0004102E000BF83F0004330B54FEA00
:1001D80041044FEA430594EA050F08BF90EA020F6D
:1001E8001FBF54EA000C55EA020C7FEA645C7FEA00
:1001F800655C00F0E2804FEA5454D4EB5555B8BF23
:100208006D420CDD2C4480EA020281EA030382EA93
:10021800000083EA010180EA020281EA0303362D25
:1002280088BF30BD11F0004F4FEA01314FF4801CF8
:100238004CEA113102D0404261EB410113F0004F0A
:100248004FEA03334CEA133302D0524263EB4303C1
:1002580094EA050F00F0A780A4F10104D5F1200E5F
:100268000DDB02FA0EFC22FA05F2801841F10001BA
:1002780003FA0EF2801843FA05F359410EE0A5F18E
:1002880020050EF1200E012A03FA0EFC28BF4CF0BF
:10029800020C43FA05F3C01851EBE37101F0004575
:1002A80007D54FF0000EDCF1000C7EEB00006EEB82
:1002B8000101B1F5801F1BD3B1F5001F0CD349080C
:1002C8005FEA30004FEA3C0C04F101044FEA445263
:1002D80012F5800F80F09A80BCF1004F08BF5FEAEA
:1002E800500C50F1000041EB045141EA050130BDCA
:1002F8005FEA4C0C404141EB010111F4801FA4F16D
:100308000104E9D191F0000F04BF01460020B1FAC1
:1003180081F308BF2033A3F10B03B3F120020CDAF9
:100328000C3208DD02F1140CC2F10C0201FA0CF0D7
:1003380021FA02F10CE002F11402D8BFC2F1200C3C
:1003480001FA02F120FA0CFCDCBF41EA0C019040F2
:10035800E41AA2BF01EB0451294330BD6FEA04043B
:100368001F3C1CDA0C340EDC04F11404C4F1200226
:1003780020FA04F001FA02F340EA030021FA04F338
:1003880045EA030130BDC4F10C04C4F1200220FA8F
:1003980002F001FA04F340EA0300294630BD21FACD
:1003A80004F0294630BD94F0000F83F4801306BF93
:1003B80081F480110134013D4EE77FEA645C18BF87
:1003C8007FEA655C29D094EA050F08BF90EA020F1E
:1003D80005D054EA000C04BF1946104630BD91EA16
:1003E800030F1EBF0021002030BD5FEA545C05D119
:1003F8004000494128BF41F0004130BD14F5800458
:100408003CBF01F5801130BD01F0004545F0FE41CB
:1004180041F470014FF0000030BD7FEA645C1ABF00
:10042800194610467FEA655C1CBF0B46024650EA37
:10043800013406BF52EA033591EA030F41F4002163
:1004480030BD00BF90F0000F04BF0021704730B5E9
:100458004FF4806404F132044FF000054FF00001BE
:1004680050E700BF90F0000F04BF0021704730B57F
:100478004FF4806404F1320410F0004548BF404254
:100488004FF000013EE700BF42004FEAE2014FEAA9
:1004980031014FEA02701FBF12F07F4393F07F4F84
:1004A80081F06051704732F07F4208BF704793F087
:1004B8007F4F04BF41F40021704730B54FF460749A
:1004C80001F0004521F000411CE700BF50EA01029D
:1004D80008BF704730B54FF000050AE050EA010246
:1004E80008BF704730B511F0004502D5404261EBB6
:1004F80041014FF4806404F132045FEA915C3FF4F7
:10050800D8AE4FF003025FEADC0C18BF03325FEA93
:10051800DC0C18BF033202EBDC02C2F1200300FA44
:1005280003FC20FA02F001FA03FE40EA0E0021FA69
:1005380002F11444BDE600BF4FF0FF3C06E000BFE7
:100548004FF0010C02E000BF4FF0010C4DF804CD54
:100558004FEA410C7FEA6C5C4FEA430C18BF7FEA14
:100568006C5C1BD001B050EA410C0CBF52EA430C42
:1005780091EA030F02BF90EA020F0020704710F1C2
:10058800000F91EA030F58BF994208BF90422CBF51
:10059800D8176FEAE37040F0010070474FEA410C4A
:1005A8007FEA6C5C02D150EA013C07D14FEA430C68
:1005B8007FEA6C5CD6D152EA033CD3D05DF8040BD9
:1005C800704700BF8446104662468C46194663460B
:1005D80000E000BF01B5FFF7B7FF002848BF10F1E2
:1005E800000F01BD4DF808EDFFF7F4FF0CBF012027
:1005F80000205DF808FB00BF4DF808EDFFF7EAFFA3
:1006080034BF012000205DF808FB00BF4DF808ED5D
:10061800FFF7E0FF94BF012000205DF808FB00BF52
:100628004DF808EDFFF7CEFF94BF012000205DF8DC
:1006380008FB00BF4DF808EDFFF7C4FF34BF0120E9
:1006480000205DF808FB00BF4A0011D212F5001225
:1006580011D20DD56FF47873B3EB62520ED44FEA12
:10066800C12343F0004343EA505323FA02F0704792
:100678004FF00000704750EA013002D14FF0FF30D0
:1006880070474FF00000704753B94AB9002908BFB6
:1006980000281CBF4FF0FF314FF0FF3000F072B957
:1006A800ADF1080C6DE904CE00F006F8DDF804E0C1
:1006B800DDE9022304B070472DE9F047089E04469F
:1006C8008846002B4BD18A42154667D9B2FA82F286
:1006D8004AB1C2F1200701FA02F320FA07F7954060
:1006E80047EA030894404FEA154E230CB8FBFEF77F
:1006F8001FFA85FC0EFB178843EA084307FB0CF139
:10070800994209D9EB1807F1FF3080F01B81994213
:1007180040F21881023F2B445B1AA4B2B3FBFEF0EF
:100728000EFB103344EA034400FB0CFCA44509D932
:100738002C1900F1FF3380F00781A44540F20481B1
:1007480002382C4440EA0740A4EB0C0400271EB1F1
:10075800D4400023C6E900433946BDE8F0878B4200
:1007680009D9002E00F0EB800027C6E900013846C1
:100778003946BDE8F087B3FA83F7002F47D18B429B
:1007880002D3824200F2FA80841A61EB030301204B
:100798009846002EE0D0C6E90048DDE702B9FFDE42
:1007A800B2FA82F2002A40F08F80491B4FEA154EB8
:1007B8001FFA85F80127B1FBFEFC230C0EFB1C1168
:1007C80043EA014308FB0CF1994207D9EB180CF1F5
:1007D800FF3002D2994200F2CD808446591AA3B262
:1007E800B1FBFEF00EFB101443EA044408FB00F8CA
:1007F800A04507D92C1900F1FF3302D2A04500F219
:10080800B6801846A4EB080440EA0C409FE7C7F1FD
:10081800200CBB4022FA0CFE4EEA030E01FA07F444
:1008280020FA0CF521FA0CF34FEA1E482543B3FBD6
:10083800F8F92C0C08FB19331FFA8EFA44EA034323
:1008480009FB0AF49C4202FA07F200FA07F10BD9F5
:100858001EEB030309F1FF3080F087809C4240F2D1
:100868008480A9F1020973441B1BADB2B3FBF8F0F5
:1008780008FB103345EA034400FB0AFAA24508D9ED
:100888001EEB040400F1FF336BD2A24569D902388C
:10089800744440EA0940A0FB0289A4EB0A044C45D1
:1008A800C2464B4654D351D0002E69D0B1EB0A054D
:1008B80064EB030404FA0CFCFD40FC404CEA05051B
:1008C800C6E90054002747E7C2F1200320FA03F7DE
:1008D800954001FA02F021FA03F34FEA154E384326
:1008E800010CB3FBFEF71FFA85F80EFB173341EA3C
:1008F800034107FB08F38B4204FA02F407D969188D
:1009080007F1FF3C2FD28B422DD9023F2944CB1A45
:1009180081B2B3FBFEF00EFB103341EA034100FB4A
:1009280008F38B4207D9691800F1FF3C17D28B42B4
:1009380015D902382944C91A40EA07473BE7374620
:10094800304609E70746E7E61846FBE64145ABD2DD
:10095800B8EB020A69EB0E0201381346A4E76046B9
:10096800E9E7184695E76746D1E781467CE702380C
:100978002C4447E7ACF1020C2B442FE7384608E734
:100988003746E9E6704700BF10B504460E4B1878A5
:100998004FF47A73B3FBF0F30C4A1068B0FBF3F032
:1009A80000F0F8FA68B90F2C01D901200AE00022FA
:1009B80021464FF0FF3000F0ADFA034B5C60002099
:1009C80000E0012010BD00BF00000020080000204A
:1009D80008B50B4B1A6842F400721A601A6842F4A0
:1009E80080621A601A6842F480721A60032000F06C
:1009F8007FFA0020FFF7C8FF03F058F9002008BD70
:100A0800003C0240034A1168034B1B780B441360F7
:100A1800704700BF8400002000000020014B1868C8
:100A2800704700BF84000020494B5A6822F44032C6
:100A38005A605A6841680A435A600268536823F446
:100A48008073536002685368016943EA0123536065
:100A58000268536823F040735360026853688168E2
:100A68000B4353600268936823F400639360026841
:100A78009368C1680B439360826A364B9A4249D0A7
:100A88000268936823F07063936002689368816AD0
:100A98000B4393600268936823F0405393600268A5
:100AA8009368C16A0B4393600268936823F002035A
:100AB800936002689368816943EA41039360036A1B
:100AC800002B32D10268536823F400635360026834
:100AD800D36A23F47003D3620168CB6AC269013A0E
:100AE80043EA0253CB620268936823F4007393606D
:100AF80002689368016B43EA412393600268936834
:100B080023F48063936002689368416943EA812310
:100B1800936070470268936823F07063936002687B
:100B2800936823F040539360BEE70268536843F428
:100B3800006353600268536823F46043536001689C
:100B48004B68426A013A43EA42334B60BFE700BF51
:100B5800002301400100000F30B310B50446036CB8
:100B680043B1236C13F0100F0AD00120002384F83E
:100B78003C3010BD436480F83C3003F0B3F8F0E734
:100B8800236C23F4885323F0020343F00203236405
:100B98002046FFF749FF00206064236C23F003031D
:100BA80043F001032364E1E70120704782B000238A
:100BB800019390F83C30012B63D0012380F83C303E
:100BC80003689A6812F0010F13D19A6842F0010283
:100BD8009A60304B1B68304AA2FB03239B0C03EB43
:100BE8004303019302E0019B013B0193019B002B0E
:100BF800F9D10268936813F0010F44D0036C23F411
:100C0800E06323F0010343F480730364536813F42F
:100C1800806F05D0036C23F4405343F4805303647E
:100C2800036C13F4805F19D0436C23F0060343640C
:100C3800002380F83C306FF022031360174B5B6889
:100C480013F01F0F0DD103689A6812F0405F1DD191
:100C58009A6842F080429A60002015E000234364BD
:100C6800E6E703680E4A934201D000200CE09A6838
:100C780012F0405F0CD19A6842F080429A600020DE
:100C880002E0022000E0002002B070470020FBE7ED
:100C98000020F9E70800002083DE1B430023014001
:100CA8000020014003689A6812F4806F03D09B68A3
:100CB80013F4807F1CD170B50D460446FFF7AEFED5
:100CC800064623681A6812F0020F1AD1B5F1FF3FE1
:100CD800F7D025B1FFF7A2FE801BA842F1D9236CFB
:100CE80043F004032364002384F83C3003202DE000
:100CF800036C43F020030364002380F83C30012098
:100D080070476FF012021A60236C43F40073236477
:100D180023689A6812F0405F17D1A269BAB9DA6AF3
:100D280012F4700F03D09B6813F4806F11D1236CF9
:100D380023F480732364236C13F4805F0BD1236C3A
:100D480043F001032364002000E0002070BD002070
:100D5800FCE70020FAE70020F8E70368D86C704742
:100D680030B482B00023019390F83C30012B00F09E
:100D7800B780012380F83C300B68092B3ED9056801
:100D8800EA689BB203EB43031E3B072404FA03F310
:100D980022EA0303EB600568EA688C680B8803EBBA
:100DA80043031E3B04FA03F31343EB604B68062B23
:100DB8003AD805686A6B03EB8303053B1F2404FAE2
:100DC80003F322EA03036B6305686A6B4B6803EB62
:100DD8008303053B0C8804FA03F313436B6302682F
:100DE800404B9A4250D002683E4B9A4255D000235D
:100DF80080F83C30184602B030BC704705682A6954
:100E08009BB203EB4303072404FA03F322EA030328
:100E18002B6105682A698C680B8803EB430304FA85
:100E280003F313432B61C1E70C2B16D805682A6B13
:100E380003EB8303233B1F2404FA03F322EA03038F
:100E48002B6305682A6B4B6803EB8303233B0C88F1
:100E580004FA03F313432B63C1E70568EA6A03EB5B
:100E68008303413B1F2404FA03F322EA0303EB62E2
:100E78000568EA6A4B6803EB8303413B0C8804FA74
:100E880003F31343EB62AAE70B68122BABD1164AA4
:100E9800536843F480035360A5E70B68103B012BAC
:100EA800A5D8114A536843F4000353600B68102B0C
:100EB8009DD10E4B1B6802F1467202F52E3202F2EA
:100EC8008332A2FB03239B0C03EB83035A0001929A
:100ED80002E0019B013B0193019B002BF9D186E7BE
:100EE800022088E70020014000230140080000207C
:100EF800074AD36823F4E0631B041B0C000200F4C8
:100F0800E060184340F0BF6040F40030D0607047A4
:100F180000ED00E030B4174BDB68C3F30223C3F1E4
:100F28000704042C28BF04241D1D062D18D9033BD3
:100F38004FF0FF3505FA04F421EA0401994005FA57
:100F480003F322EA0303194300280BDB0901C9B2A2
:100F580000F1604000F5614080F8001330BC704734
:100F68000023E5E700F00F000901C9B2024B19544C
:100F7800F4E700BF00ED00E014ED00E000F01F0210
:100F8800400901239340024A42F82030704700BFCD
:100F980000E100E00138B0F1807F0AD2064B5860CA
:100FA800064AF02182F823100020986007221A6070
:100FB80070470120704700BF10E000E000ED00E03E
:100FC80070B110B50446037933B1022323710020B0
:100FD80020610123237110BD437102F0B7FEF4E7CD
:100FE800012070474379012B31D010B4012343719C
:100FF80002220271046822688B4013432360B1B94E
:1010080002681168136803F0380311F0040F01D067
:10101800382B07D0012303710023437118465DF86C
:10102800044B7047536843F001035360F2E70268CA
:101038001168136803F4601311F4802FEAD0B3F534
:10104800601FE7D1536843F002035360E2E70220D0
:1010580070474379012B1FD070B4012545710223D5
:1010680003710668336840F6FE74944023EA04046A
:101078000B6849680B439340234333600468236833
:10108800C02101FA02F223EA02022260057100235C
:101098004371184670BC70470220704710B483B083
:1010A800002401940068019051B101990A44143256
:1010B8000192019A1360002003B05DF8044B704759
:1010C80001990A4408320192F3E730B405682C68A4
:1010D80024F480242C60046863608368402B05D066
:1010E800036899600368DA6030BC704703689A60E7
:1010F8000368D960F8E700000268D3B2103B0B49D7
:10110800A1FB03131B090A49C95CC165032B06D857
:1011180022F47F7222F003028265806D704722F408
:101128007F7222F0030204328265F6E7ABAAAAAA0C
:10113800C44E0008836A826992B9012B0AD01BB198
:10114800022B01D000207047C36A13F0807F2CD196
:1011580000207047C36AB3F1C07F28D000207047D1
:10116800B2F5005F05D0022B29D9032B15D000203A
:101178007047032B03D8DFE803F01C041C0A002087
:101188007047C36A13F0807F15D100207047C36A87
:10119800B3F1C07F11D000207047C36A13F0807F7D
:1011A80001D00120704700207047012070470120BE
:1011B80070470120704701207047012070470120C7
:1011C8007047000070B50446FFF728FC002C5BD080
:1011D8000546002384F83430022384F83530226829
:1011E800136823F00103136023681A6812F0010FD3
:1011F8000AD0FFF713FC401B0528F5D920236365A7
:10120800032084F8350070BD1A68204810406168D2
:10121800A2680A43E1680A4321690A4361690A43EB
:10122800A1690A43E1690A43216A0A430243616AE0
:1012380004291ED01A602668756925F00705636AB7
:101248001D43042B07D1A36A1D43E36A1BB1204643
:10125800FFF770FF90B975612046FFF74DFFE26D0B
:101268003F239340836000206065012384F8353074
:10127800C9E7E16A206B01430A43DBE74023636562
:10128800012084F83500BEE70120BCE73F8010F05C
:1012980038B5856D90F83440012C31D0012480F8A0
:1012A800344090F83540E4B2012C04D0002380F893
:1012B8003430022038BD0446022084F8350000206E
:1012C80060652046FFF701FFE26D3F239340AB6066
:1012D8002268136843F0160313602268536943F0C9
:1012E80080035361236C23B12268136843F0080319
:1012F80013602268136843F0010313600020D9E7E4
:101308000220D7E7F0B583B0044600230193724B5F
:101318001D68724BA3FB0535AD0A876D3E68C26D2B
:1013280008239340334210D003681A6812F0040F60
:101338000BD01A6822F004021A60C26D0823934089
:10134800BB60436D43F001034365E26D01239340A5
:10135800334209D02268526912F0800F04D0BB6072
:10136800636D43F002036365E26D042393403342E7
:1013780009D02268126812F0020F04D0BB60636DB6
:1013880043F004036365E26D10239340334224D095
:101398002268126812F0080F1FD0BB6023681A6811
:1013A80012F4802F0DD01B6813F4002F04D1236C86
:1013B8009BB12046984710E0A36C73B1204698472C
:1013C8000BE01A6812F4807F03D11A6822F0080231
:1013D8001A60236C0BB120469847E26D2023934096
:1013E800334255D02268126812F0100F50D0BB60FB
:1013F80094F83530DBB2052B0ED023681A6812F446
:10140800802F33D01B6813F4002F2AD1636C002B74
:101418003ED0204698473BE02268136823F0160325
:1014280013602268536923F080035361236CA3B1CE
:101438002268136823F008031360E26D3F2393408A
:10144800BB60002384F83430012384F83530236DE1
:10145800002B3FD0204698473CE0A36C002BE7D1F7
:10146800EBE7E36BA3B12046984711E01A6812F442
:10147800807F09D11A6822F010021A60002384F8CC
:101488003430012384F83530E36B0BB1204698479C
:10149800636DFBB1636D13F0010F17D0052384F85A
:1014A80035302268136823F001031360019B013370
:1014B8000193AB4204D823681B6813F0010FF5D1E0
:1014C800002384F83430012384F83530E36C0BB101
:1014D8002046984703B0F0BD08000020B5814E1B98
:1014E80000230F2B00F2D780F0B482B039E0072236
:1014F80000E00022B2403A430234674E46F8242006
:10150800664A1468EA4302EA04064F6817F4803F03
:1015180001D045EA0406614C2660646802EA0406C4
:101528004F6817F4003F01D045EA04065B4C66603B
:10153800A46802EA04064F6817F4801F01D045EA40
:101548000406564CA660E46822404E6816F4001F54
:1015580001D045EA0402514CE26001330F2B00F23E
:10156800978001229A400C6804EA0205AA42F4D145
:101578004C68022C01D0122C10D1DE08083650F825
:1015880026C003F00704A7000F24BC402CEA040C73
:101598000C69BC4044EA0C0440F8264004685F002B
:1015A8000326BE40F64306EA040C4C6804F0030424
:1015B800BC4044EA0C0404604C6804F1FF3CBCF1F4
:1015C800010F03D9112C01D0122C10D1846806EA1E
:1015D800040CCC68BC4044EA0C048460446824EAE7
:1015E80002024C68C4F300149C4014434460C2686F
:1015F80016408A68BA403243C2604A6812F0805F77
:10160800ABD000220192264A546C44F480445464BE
:10161800526C02F480420192019A9C08A61C1E4A50
:1016280052F8267003F0030296000F22B24027EA10
:1016380002071C4A90423FF45CAF02F58062904278
:101648001AD002F58062904218D002F5806290426A
:1016580016D002F58062904214D002F58062904262
:1016680012D002F58062904210D002F5806290425A
:101678003FF43DAF08223DE701223BE7022239E76C
:10168800032237E7042235E7052233E7062231E74C
:1016980002B0F0BC7047704700380140003C014080
:1016A80000380240000002400369194201D10020BD
:1016B80070470120704712B9090481617047816140
:1016C8007047000008B5054B5B69034200D108BDAF
:1016D800024B586102F030F9F9E700BF003C0140C5
:1016E80003685A6912F4806F0DD06FF480625A61F2
:1016F8000423036400230363202280F83D2080F83C
:101708003C300120704700207047F8B506460C466B
:1017180017461D461EE02DB1FFF780F9069BC01A3B
:10172800A84217D900233363202286F83D2086F883
:101738003E3086F83C3003201AE033685B6924EABF
:1017480003039BB2B3FA83F35B099F420FD1B5F150
:10175800FF3FE0D1C4F30743012BEED033689B6908
:1017680024EA03039BB2B3FA83F35B09EDE7002095
:10177800F8BDF8B504460D4616461F4632E01A680D
:1017880042F400721A6023686FF480625A6104237D
:10179800236400232363202284F83D2084F83C300E
:1017A80001202DE026B1FFF739F9C01BB04219D945
:1017B80000232363202284F83D2084F83C30032052
:1017C8001EE023685B6925EA03039BB2003318BF58
:1017D8000123A3B123685A6912F4806FCFD1B6F1FF
:1017E800FF3FDFD1C5F30743012BEAD023689B698C
:1017F80025EA03039BB2003318BF0123E9E7002061
:10180800F8BD0000F0B583B004460D4616461F46E5
:10181800C36A042B0DD0012B0BD013F5803F08D0E1
:10182800036B122B0AD10268136843F480731360A8
:1018380004E02268136843F480731360009733460A
:1018480000224FF001112046FFF75FFF58BB2369C4
:10185800B3F5804F10D1236805F0FE051D613B46A6
:10186800324615492046FFF784FF0346E0B1236C52
:10187800042B1ED1012317E0EB11226803F00603A5
:1018880043F0F00313613B4632460C492046FFF70C
:1018980070FF20B1236C042B09D1012304E02368D5
:1018A800EDB21D61DBE70323184603B0F0BD032347
:1018B800FAE70323F8E700BF02000100080001006F
:1018C8002DE9F04184B004460D4616461F46C26A0B
:1018D80001680B6843F480630B60042A0DD0012A69
:1018E8000BD012F5803F08D0036B112B0AD1026888
:1018F800136843F48073136004E02268136843F4A8
:10190800807313600097334600224FF00111204680
:10191800FFF7FBFE002852D12369B3F5804F12D19F
:10192800236845F00105EDB21D613B4632462A4960
:101938002046FFF71EFF0346002841D0236C042BE6
:1019480048D101233CE04FEAE51808F0060823686F
:1019580048F0F0021A613B46324620492046FFF71C
:1019680008FF20B1236C042B2ED1012328E0236823
:10197800EDB21D613B46324617492046FFF7F9FE96
:1019880020B1236C042B21D1012319E000220392FA
:10199800236859690391996903910399196841F476
:1019A80080711960009733464FF001112046FFF708
:1019B800ACFE68B9226848F0F1031361B5E7032368
:1019C800184604B0BDE8F0810323F9E70323F7E7DD
:1019D8000323F5E70323F3E70200010008000100F1
:1019E80070B504460D46164623685B6913F0800FF0
:1019F80019D12046FFF774FEB8B9B5F1FF3FF3D00F
:101A080025B1FFF70BF8801BA842EDD9236C43F0F2
:101A18002003236400232363202284F83D2084F8D4
:101A28003C30032000E0002070BD0120FCE770B5C9
:101A380004460D46164623685B6913F0040F19D156
:101A48002046FFF74DFEB8B9B5F1FF3FF3D025B1F9
:101A5800FEF7E4FF801BA842EDD9236C43F0200376
:101A6800236400232363202284F83D2084F83C303B
:101A7800032000E0002070BD0120FCE770B505469A
:101A88000C4616462B685A6912F0400F22D15A6943
:101A980012F0100F11D124B1FEF7C0FF801BA04235
:101AA800F0D92B6C43F020032B64202385F83D30BC
:101AB800002385F83C30032070BD6FF010025A6196
:101AC80000232B642B63202285F83D2085F83C30C9
:101AD8000120F1E70020EFE7002800F0828010B530
:101AE800044690F83D30002B41D0242384F83D3043
:101AF8002268136823F00103136001F03FF93A4BA1
:101B0800A3FB00239B0C226853606168374A91420B
:101B180032D80133226813626368344A934235D855
:101B28005B00B0FBF3F0C0F30B03032B00D80420D9
:101B38002368D861E369216A22680B43136023692B
:101B4800E16822680B4393606369A16922680B43CB
:101B5800D3602268136843F00103136000202064F7
:101B6800202384F83D30206384F83E0010BD80F8BF
:101B78003C3002F01FF9B8E74FF4967202FB03F30A
:101B88001B4AA2FB03239B090133C3E7A16889B958
:101B980003EB4302B0FBF2F2C2F30B02B2FA82F299
:101BA8005209E2B991B903EB4303B0FBF3F040F4F7
:101BB8000040BDE703EB830202EB8202B0FBF2F2C6
:101BC800C2F30B02B2FA82F25209EAE703EB83038B
:101BD80003EB8303B0FBF3F040F44040A8E7012097
:101BE800A6E70120704700BF83DE1B43A0860100E3
:101BF800D34D62102DE9F04184B004460E4690465C
:101C08001F46FEF70BFF94F83D30DBB2202B04D0C3
:101C18000226304604B0BDE8F0810546009019233D
:101C2800012254492046FFF770FD002840F09980B2
:101C380094F83C30012B00F09680012384F83C3066
:101C480023681A6812F0010F03D11A6842F00102E2
:101C58001A602268136823F400631360212384F850
:101C68003D30102384F83E3000232364C4F82480D8
:101C78006785A3F58033E362638D23852B460A9A33
:101C880031462046FFF7BEFD064660B1236C042BA3
:101C980004D1002384F83C300126BAE7002384F8F5
:101CA8003C300326B5E70023039323685A6903925F
:101CB8009B690393039B10E0236C042B55D1226886
:101CC800136843F4007313600126A2E72A460A99B1
:101CD8002046FFF7ACFE00282BD1238D002B32D0F5
:101CE8002A460A992046FFF77BFE0028E4D1636A5A
:101CF8005A1C626222681B781361638D013B9BB298
:101D08006385238D013B9BB223852268516911F0BD
:101D1800040FDBD0002BD9D0636A591C61621B7891
:101D28001361638D013B9BB26385238D013B238542
:101D3800CCE7236C042B1AD12268136843F4007390
:101D48001360012665E72268136843F40073136083
:101D5800202384F83D30002384F83E3084F83C305A
:101D680057E7022655E7022653E7032651E70326DD
:101D78004FE700BF020010002DE9F04186B004468D
:101D88000E4690461F46FEF749FE94F83D30DBB2FA
:101D9800202B04D00226304606B0BDE8F081054667
:101DA8000090192301228C492046FFF7AEFC002839
:101DB80040F04B8194F83C30012B00F0488101231E
:101DC80084F83C3023681A6812F0010F03D11A68AE
:101DD80042F001021A602268136823F4006313605A
:101DE800222384F83D30102384F83E3000232364F6
:101DF800C4F824806785A3F58033E362638D238567
:101E08002B460C9A31462046FFF75AFD064660B12C
:101E1800236C042B04D1002384F83C300126BAE754
:101E2800002384F83C300326B5E7238D5BB9029381
:101E380023685A6902929A690292029A1A6842F4CD
:101E480000721A607AE0012B0FD0022B1FD0226893
:101E5800136843F4806313600023059323685A6969
:101E680005929B690593059B68E02268136823F433
:101E7800806313600023039323685A6903929A6965
:101E88000392039A1A6842F400721A6056E02268B4
:101E9800136823F4806313602268136843F40063B3
:101EA80013600023049323685A6904929B6904937E
:101EB800049B43E02A460C992046FFF7DFFD68B9EA
:101EC80023681A69636A591C61621A70238D013B81
:101ED8002385638D013B9BB263852FE0236C202B08
:101EE80001D0012657E7032655E700950C9B0022F1
:101EF8003A492046FFF709FC002840F0AA802268EA
:101F0800136843F40073136023681A69636A591CE1
:101F180061621A70238D013B2385638D013B9BB25F
:101F2800638523681A69636A591C61621A70238D74
:101F3800013B2385638D013B9BB26385238D002B79
:101F48007AD0032B4CD8012BB4D0022BCDD00095DE
:101F58000C9B002221492046FFF7D7FB00287AD1A5
:101F68002268136823F48063136023681A69636A1C
:101F7800591C61621A70238D013B2385638D013BD7
:101F88009BB2638500950C9B002214492046FFF7FD
:101F9800BCFB002861D12268136843F40073136006
:101FA80023681A69636A591C61621A70238D013BA0
:101FB8002385638D013B9BB2638523681A69636A35
:101FC800591C61621A70238D013B2385638D013B87
:101FD8009BB26385B2E700BF020010000400010055
:101FE8002A460C992046FFF749FDF0B923681A697B
:101FF800636A591C61621A70238D013B2385638DC6
:10200800013B9BB2638523685A6912F0040F95D08F
:102018001A69636A591C61621A70238D013B238512
:10202800638D013B9BB2638588E7236C202B01D02D
:102038000126B0E60326AEE6202384F83D300023CF
:1020480084F83E3084F83C30A5E60226A3E6022652
:10205800A1E603269FE603269DE603269BE600BF2E
:1020680000294CD010B50C46002A4AD090F84130CF
:10207800DBB2012B47D141620368DB6903F0070338
:10208800032B04D0052B02D00285428503E05200C1
:1020980092B20285428590F84030DBB2012B34D0F1
:1020A80021460446012380F840300023436403237B
:1020B80080F84130836B164A1A64836B154ADA63D9
:1020C800836B154ADA640268038D0C32806BFFF764
:1020D800DFF82368DA6912F4806F03D1DA6942F411
:1020E8008062DA6123685A6812F0020F03D15A68D5
:1020F80042F002025A60002084F8400002E0012009
:102108007047012010BD0220FCE70220FAE700BF5B
:10211800272100086B2100083D240008704708B5F6
:10212800806BFFF7FBFF08BD704708B5436A9A1C30
:10213800426202681B88D360438D013B9BB2438592
:10214800438D9BB203B108BD0268536823F0A00316
:102158001B041B0C5360012380F84130FFF7E4FF98
:10216800F1E708B5836B0268126812F4807F09D121
:1021780019684A6822F002024A6000225A85012240
:1021880083F841201846FFF7CFFF08BD704708B510
:102198000368DA68C36A991CC1621A80438E013BDE
:1021A8009BB24386438E9BB203B108BD0268536855
:1021B80023F060031B041B0C5360012380F841309B
:1021C800FFF7E4FFF1E77047002800F0BB8070B527
:1021D8000446022580F841505B4B436301F024FE1E
:1021E8002268D36923F47B6323F00F03D361236848
:1021F8001D622368DD696369022B5BD0E368002BED
:102208003ED02026A368202B00D87600012000F0BD
:102218006FFE2369B3F5007F34D0B0FBF6F000EB16
:10222800800043006269B3FBF2F30533474AA2FB1F
:102238000323DB0803F001029B1AC3F34F031102C7
:102248009A1EFD2A38D822690A43216813430B6273
:102258006268A168E068238B03439BB20B439BB27F
:1022680013439BB243F400631D432368DD61236A73
:10227800012B2AD000206064012384F8413070BD0E
:102288001026BFE7E36853B1B600B0FBF6F000EBE9
:10229800800043006269B3FBF2F30533C6E7F6003A
:1022A800B0FBF6F000EB800043006269B3FBF2F389
:1022B8000533BBE70021C3E7636C43F01003636495
:1022C8002046FFF780FF0120D9E7214B636322688E
:1022D800204B9A421ED04FF04022D36923F47B63EF
:1022E80023F00F03D36122681A4B9A4214D04FF09F
:1022F800402302221A622268164B9A420FD04FF0EE
:102308004022D0696168B1F5007F0AD0C1B94FF4A5
:10231800807608E0104AE0E7A3F58063E9E70E4A13
:10232800EFE74FF48076A168E568238B2B439BB2D7
:102338000B439BB2334343F400630343D36199E7F0
:102348000026F0E70120704765230008CDCCCCCCEF
:10235800A9250008003800400034004010B584B0BA
:10236800044602689368039390F84130DBB2042B6B
:1023780006D094F84130DBB2032B2ED004B010BD48
:10238800039B13F0010F03D0536813F0400F21D1C2
:10239800039B13F0400FECD023685A6812F0200F0B
:1023A800E7D05A6822F060021204120C5A60002327
:1023B80001932368DA6801929B680193019B0123CA
:1023C80084F84130636C43F0020363642046FFF7EE
:1023D800FAFECEE7FFF7DBFEDAE7039B13F0020F06
:1023E80004D023685B6813F0800F1FD1039B13F0A0
:1023F800080FC3D023685A6812F0200FBED05A685D
:1024080022F0A0021204120C5A60002302932368DF
:102418009B680293029B012384F84130636C43F06C
:10242800040363642046FFF7CEFEA7E72046FFF7C4
:102438007CFEDBE708B5806B0268536823F0030372
:102448005360002343854386012380F84130436C61
:1024580043F008034364FFF7B6FE08BD7047000069
:1024680008B5E9B9436A9A1C426202681B88D360BE
:10247800438D013B9BB24385438D9BB24BB90268A8
:10248800536823F0A0031B041B0C5360438E9BB2BC
:1024980003B108BD012380F84130FFF7DFFFF8E7FB
:1024A800436A9A1C42621A880168134B99421ED0EB
:1024B8004FF04023DA60438D013B9BB24385438D47
:1024C8009BB2002BE5D102680B4B9A4212D04FF019
:1024D8004022536823F0A0035360438E9BB2002B25
:1024E800D7D1012380F84130FFF7B8FFD1E7A3F532
:1024F8008063DFE7014AECE7003800400034004021
:1025080008B5E9B90368DA68C36A991CC1621A8018
:10251800438E013B9BB24386438E9BB24BB9026804
:10252800536823F060031B041B0C5360438D9BB25C
:1025380003B108BD012380F84130FFF78FFFF8E7AA
:102548000268154B9A4222D04FF04023DA68C36ADA
:10255800991CC1621A80438E013B9BB24386438E0D
:102568009BB2002BE5D102680B4B9A4212D04FF078
:102578004022536823F060035360438D9BB2002BC5
:10258800D7D1012380F84130FFF768FFD1E7A3F5E1
:102598008063DBE7014AECE7003800400034004084
:1025A80010B584B0044603689A6803927C4A934243
:1025B8005DD04FF040218A680292DA6902F44072D5
:1025C800B2F5007F04D0DA6912F4407F40F08180D0
:1025D800039A12F0020F03D05B6813F0800F48D102
:1025E800029B13F0010F09D022686D4B9A4245D027
:1025F8004FF040235B6813F0400F42D1029B13F069
:10260800400F09D02268664B9A423FD04FF04023D2
:102618005A6812F0200F3CD1039B13F0080F24D006
:1026280023685A6812F0200F1FD05A6822F0A002BF
:102638001204120C5A602268594B9A4247D04FF044
:102648004022536823F060035360002301932368FA
:102658009B680193019B012384F84130636C43F02C
:10266800040363642046FFF7AEFD04B010BD4D4976
:10267800A1E700212046FFF7F3FEB1E7A3F5806349
:10268800B8E701212046FFF73BFFB7E7A3F58063D2
:10269800BEE75A6822F060025A602268536823F045
:1026A800A0031B041B0C5360002300932368DA6803
:1026B80000929B680093009B012384F84130636C6F
:1026C80043F0020363642046FFF77DFDA4E7354A23
:1026D800B7E7029B13F0020F03D04B6813F0800F8B
:1026E8004FD1039B13F0010F04D023685B6813F0EC
:1026F800400F4BD1039B13F0400F1ED023685A683C
:1027080012F0200F19D05A6822F060021204120C3D
:102718005A602268224B9A423DD04FF040225368BB
:1027280023F0A0035360012384F84130636C43F025
:10273800020363642046FFF746FD029B13F0080F6F
:1027480093D02268164B9A4227D04FF040235A68FC
:1027580012F0200F89D05A6822F0A0025A6022682D
:10276800536823F060031B041B0C5360012384F897
:102778004130636C43F0040363642046FFF723FD94
:1027880073E701212046FFF76BFEAAE700212046E8
:10279800FFF7B6FEAEE7034AC1E7A3F58063D6E7C5
:1027A8000038004000340040002800F0BB8170B5BC
:1027B80082B00446036813F0010F3BD0A74B9B6817
:1027C80003F00C03042B2CD0A44B9B6803F00C03E0
:1027D800082B21D06368B3F5803F4FD0B3F5A02F05
:1027E80052D09E4B1A6822F480321A601A6822F47A
:1027F80080221A606368002B50D0FEF70FF9054657
:10280800964B1B6813F4003F14D1FEF707F9401BE1
:102818006428F5D903208AE1904B5B6813F4800F94
:10282800D8D08E4B1B6813F4003F03D06368002B8D
:1028380000F07A81236813F0020F55D0874B9B680C
:1028480013F00C0F3ED0854B9B6803F00C03082B4C
:1028580033D0E368002B68D0814B01221A60FEF761
:10286800DDF805467D4B1B6813F0020F54D1FEF7C7
:10287800D5F8401B0228F5D9032058E1774A136898
:1028880043F480331360B5E7744B1A6842F480222E
:102898001A601A6842F480321A60ABE7FEF7BEF895
:1028A80005466E4B1B6813F4003FC3D0FEF7B6F81D
:1028B800401B6428F5D9032039E1684B5B6813F4A1
:1028C800800FC6D1654B1B6813F0020F04D0E36874
:1028D800012B01D001202AE1604A136823F0F80394
:1028E800216943EAC1031360236813F0080F40D03D
:1028F800636963B35B4B01221A60FEF78FF80546E4
:10290800564B5B6F13F0020F33D1FEF787F8401B6D
:102918000228F5D903200AE1504A136823F0F80386
:10292800216943EAC1031360DEE74D4B00221A60B8
:10293800FEF774F80546494B1B6813F0020FD3D015
:10294800FEF76CF8401B0228F5D90320EFE0454B51
:1029580000221A60FEF762F80546404B5B6F13F0E1
:10296800020F06D0FEF75AF8401B0228F5D90320BB
:10297800DDE0236813F0040F79D0384B1B6C13F09B
:10298800805F33D100230193344B1A6C42F080529C
:102998001A641B6C03F080530193019B0125324B91
:1029A8001B6813F4807F23D0A368012B34D0052B38
:1029B80038D02A4B1A6F22F001021A671A6F22F0D8
:1029C80004021A67A368002B36D0FEF727F80646DC
:1029D800224B1B6F13F0020F48D1FEF71FF8801B24
:1029E80041F288339842F3D90320A0E00025D6E7C6
:1029F8001D4A136843F480731360FEF70FF8064608
:102A0800194B1B6813F4807FCED1FEF707F8801BA3
:102A18000228F5D903208AE0104A136F43F0010316
:102A28001367CFE70D4B1A6F42F004021A671A6F4B
:102A380042F001021A67C5E7FDF7F0FF0646074BAB
:102A48001B6F13F0020F11D0FDF7E8FF801B41F256
:102A580088339842F3D9032069E000BF0038024068
:102A680000004742800E474200700040E5B9A36964
:102A7800002B5BD0304A926802F00C02082A58D02A
:102A8800022B17D02D4B00221A60FDF7C7FF044612
:102A9800294B1B6813F0007F42D0FDF7BFFF001BD6
:102AA8000228F5D9032042E0234A136C23F080530F
:102AB8001364DCE7214B00221A60FDF7AFFF0546DF
:102AC8001D4B1B6813F0007F06D0FDF7A7FF401BC6
:102AD8000228F5D903202AE0E369226A1343626ACF
:102AE80043EA8213A26A5208013A43EA0243E26ABD
:102AF80043EA0263104A5360104B01221A60FDF743
:102B08008DFF04460C4B1B6813F0007F06D1FDF7C0
:102B180085FF001B0228F5D9032008E0002006E005
:102B2800002004E001207047012000E0002002B0EE
:102B380070BD0120FBE700BF00380240600047423B
:102B4800324B9B6803F00C03042B5CD0082B01D09C
:102B58002F4870472DE9F04B2C4B5A6802F03F0282
:102B68005B6813F4800F2BD0284B5B68C3F3881382
:102B78001E4600275C010025E41A65EB0705A9013C
:102B880041EA9461A001001B61EB0501CB0043EA17
:102B98005073C400A01943EB07014B0243EAD0531A
:102BA8004402204619460023FDF76EFD174B5B686B
:102BB800C3F3014301335B00B0FBF3F0BDE8F08BD6
:102BC800124B5B68C3F388131E4600275C0100257F
:102BD800E41A65EB0705A90141EA9461A001001B0D
:102BE80061EB0501CB0043EA5073C400A01943EB25
:102BF80007018B0243EA90538402204619460023BA
:102C0800FDF742FDD2E70348704700BF0038024095
:102C18000024F40000127A00002800F09D8070B5AE
:102C280004464F4B1B6803F00F038B4209D2CBB20B
:102C38004B4A1370136803F00F038B4201D0012035
:102C480070BD236813F0020F17D013F0040F04D0DF
:102C5800444A936843F4E0539360236813F0080FE1
:102C680004D0404A936843F4604393603D4A9368B4
:102C780023F0F003A068034393600D46236813F024
:102C8800010F32D06368012B21D09A1E012A25D961
:102C9800344A126812F0020F60D032498A6822F072
:102CA800030213438B60FDF7B9FE06462D4B9B6864
:102CB80003F00C036268B3EB820F16D0FDF7AEFE8B
:102CC800801B41F288339842F0D90320B8E7254A9F
:102CD800126812F4003FE0D10120B1E7214A1268DE
:102CE80012F0007FD9D10120AAE71D4B1B6803F021
:102CF8000F03AB4209D9EAB2194B1A701B6803F0EB
:102D08000F03AB4201D001209AE7236813F0040FA8
:102D180006D0144A936823F4E053E1680B439360A8
:102D2800236813F0080F07D00E4A936823F4604312
:102D3800216943EAC1039360FFF702FF094B9B68CF
:102D4800C3F30313084AD35CD840084B186000202B
:102D5800FDF71AFE002073E70120704701206FE796
:102D6800003C024000380240CC4E00080800002019
:102D7800014B1868704700BF0800002008B5FFF72E
:102D8800F7FF044B9B68C3F38223034AD35CD84004
:102D980008BD00BF00380240DC4E000830B583B0E3
:102DA8000446036813F0050F06D1236813F0020FD9
:102DB8002ED1002003B030BD494B00221A60FDF728
:102DC8002DFE0546474B1B6813F0006F06D0FDF734
:102DD80025FE401B0228F5D90320EBE76268A368AB
:102DE8001B0743EA82133F4AC2F884303C4B012256
:102DF8001A60FDF713FE05463A4B1B6813F0006F87
:102E0800D3D1FDF70BFE401B0228F5D90320D1E7EB
:102E180000230193334B1A6C42F080521A641B6CE6
:102E280003F080530193019B2F4A136843F4807386
:102E38001360FDF7F3FD05462B4B1B6813F4807FE9
:102E480006D1FDF7EBFD401B0228F5D90320B1E7B9
:102E5800244B1B6F13F4407312D0E26802F44072E3
:102E68009A420DD01F4B1A6F22F440721F4901205D
:102E78000860002008601A671B6F13F0010F13D158
:102E8800E36803F44072B2F5407F1ED0154A936898
:102E980023F4F813936013490B6FE268C2F30B0233
:102EA80013430B67002085E7FDF7B8FD05460D4B7A
:102EB8001B6F13F0020FE3D1FDF7B0FD401B41F289
:102EC80088339842F3D9032074E706498A6822F4C4
:102ED800F81223F0704323F4407313438B60DAE74E
:102EE800680047420038024000700040400E4742E8
:102EF80001282AD1174B9B6813F4000303D0012B38
:102F080025D115487047134B5B6813F4800F14D014
:102F1800104B5B6803F03F031048B0FBF3F00D4A19
:102F2800D2F88430C3F3881300FB03F0D2F884305E
:102F3800C3F30273B0FBF3F07047064B5B6803F012
:102F48003F030748B0FBF3F0E9E700207047002093
:102F5800704700BF003802400080BB0000127A00B2
:102F68000024F40010B4036A046A24F00104046223
:102F7800846924F0F00444EA021223F00A030B43A4
:102F8800826103625DF8044B704710B4036A23F052
:102F9800100303628469036A24F4704444EA023229
:102FA80023F0A00343EA0113826103625DF8044B36
:102FB8007047836823F0700341F00701194381606B
:102FC800704710B4846824F47F4442EA03230B4317
:102FD800234383605DF8044B70470268D36843F06D
:102FE8000103D3600268136843F0010313600020F3
:102FF800704790F83830012B7DD010B50446012376
:1030080080F83830022380F839300268936823F456
:103018007F4323F0770393600B68402B57D010D978
:10302800702B3ED01FD8502B47D0602B32D1CA68A6
:1030380049680068FFF7A9FF60212068FFF7B9FF1A
:1030480028E0102B4DD008D9202B4FD0302B21D180
:1030580030210068FFF7ADFF1CE0DBB900210068F4
:10306800FFF7A7FF16E0B3F5805F0ED0B3F5005F5A
:1030780010D1CB684A6889680068FFF7A2FF226808
:10308800936843F48043936004E00268936823F0F4
:1030980007039360012384F83930002084F838004E
:1030A80010BDCB684A6889680068FFF78AFF226804
:1030B800936843F077039360ECE7CA68496800684F
:1030C800FFF750FF50212068FFF773FFE2E7CA6857
:1030D80049680068FFF746FF40212068FFF769FF4D
:1030E800D8E710210068FFF764FFD3E720210068C4
:1030F800FFF75FFFCEE702207047704770477047C1
:10310800704710B5044603681A6912F0020F11D00F
:10311800DA6812F0020F0DD06FF002021A61012373
:10312800037603689B6913F0030F70D0FFF7E6FF7F
:103138000023237623681A6912F0040F12D0DA6884
:1031480012F0040F0ED06FF004021A6102232376E6
:1031580023689B6913F4407F5FD02046FFF7CEFFBA
:103168000023237623681A6912F0080F12D0DA6850
:1031780012F0080F0ED06FF008021A6104232376AC
:103188002368DB6913F0030F4ED02046FFF7B6FF24
:103198000023237623681A6912F0100F12D0DA6818
:1031A80012F0100F0ED06FF010021A610823237668
:1031B8002368DB6913F4407F3DD02046FFF79EFF6C
:1031C8000023237623681A6912F0010F03D0DA6806
:1031D80012F0010F36D123681A6912F0800F03D05C
:1031E800DA6812F0800F34D123681A6912F0400FA0
:1031F80003D0DA6812F0400F32D123681A6912F04E
:10320800200F03D0DA6812F0200F30D110BDFFF77D
:1032180074FF2046FFF773FF8AE72046FFF76DFF2C
:103228002046FFF76CFF9BE72046FFF766FF204626
:10323800FFF765FFACE72046FFF75FFF2046FFF783
:103248005EFFBDE76FF001021A61204600F0D0FC76
:10325800C1E76FF080021A61204600F0B2F8C3E7B8
:103268006FF040021A612046FFF74AFFC5E76FF08A
:1032780020021A61204600F0A3F8C7E703682E4A27
:10328800904212D0B0F1804F0FD0A2F57C4290420C
:103298000BD002F58062904207D002F5806290421E
:1032A80003D002F57842904203D123F070034A68B4
:1032B8001343214A90422AD0B0F1804F27D0A2F57B
:1032C8007C42904223D002F5806290421FD002F5E2
:1032D800806290421BD002F57842904217D002F5E6
:1032E8007052904213D002F5806290420FD002F5DE
:1032F800806290420BD0A2F59832904207D002F536
:103308008062904203D002F58062904203D123F498
:103318004073CA68134303608B68C3620B68836297
:10332800054B984203D003F58063984201D10B699D
:10333800036301234361704700000140A8B110B541
:10334800044690F839305BB1022384F83930211DE6
:103358002068FFF793FF012384F83930002010BD5F
:1033680080F8383000F0D0FDEEE70120704790F883
:103378003830012B22D030B4012280F838200223C3
:1033880080F839300468636823F070036360046868
:1033980063680D682B4363600468A36823F08003A7
:1033A800A3600468A36849680B43A36080F83920C8
:1033B800002380F83830184630BC70470220704728
:1033C8007047704710B582B0064C20700B78637058
:1033D80064230093022322469421201DFEF70AFC51
:1033E80002B010BD2800002070B582B00E460A4A0F
:1033F800144604F8040B6425009501239421204603
:10340800FEF7F8FB00950123324694212046FEF78B
:10341800B3FC02B070BD00BF2800002084B070B5B6
:1034280004AC84E80F009DF86460444B002283F8E4
:1034380040201A68D36943F48063D36101221021C4
:103448003F48FEF738F93F4C542204A9201D01F0EB
:1034580015FD0123637021460220FFF7B3FF2546BF
:10346800AF2305F8013F29460420FFF7ABFF80236F
:10347800637029460520FFF7A5FF21460620FFF7C0
:10348800B3FF637803F0200343F007036370294612
:103498000620FFF797FF29460820FFF7A5FF637866
:1034A80003F0F00343F00103637029460820FFF797
:1034B80089FF29460920FFF797FF637803F0F00397
:1034C80043F00103637029460920FFF77BFF294673
:1034D8000E20FFF789FF012E28D016B9194B0222BA
:1034E8005A70184D6C1C21460E20FFF76BFF2146C1
:1034F8000F20FFF779FF00266E7021460F20FFF797
:1035080061FF6E7021461420FFF75CFF21461520ED
:10351800FFF758FF21461A20FFF754FF21461B20CA
:10352800FFF750FFBDE8704004B07047637843F080
:10353800C00303F0C7036370D3E700BFF0010020A6
:10354800000C02402800002008B5032806D8DFE850
:1035580000F0020F13170C4BF0225A700A494B78EF
:1035680043F00F0301F8013F0420FFF72BFF08BDCC
:10357800054BB0225A70F1E7034BE0225A70EDE791
:10358800014BA0225A70E9E72800002038B504460C
:10359800A0F13203DBB25B00114D05F8013F29466B
:1035A8001420FFF70FFF29461520FFF70BFF642CA7
:1035B80014D804EB440423010A4A82FB03235B0961
:1035C800183BDBB2064C04F8013F21462020FFF7E8
:1035D800F9FE21462120FFF7F5FE38BD1823F1E753
:1035E800280000201F85EB5138B5194D2C4699232A
:1035F80004F8013F21460020FFF7E4FE80236B70AA
:1036080021464720FFF7DEFE21463220FFF7ECFE79
:103618006B7863F07F036B7021463220FFF7D2FE90
:1036280021463220FFF7E0FE6B7803F07F036B70D2
:1036380021463220FFF7C6FE002068702146FFF7BA
:10364800C1FE9E236B7021460220FFF7BBFE38BDEA
:10365800280000202DE9F0418CB00024079408943C
:1036680009940A940B940194514B1A6B42F080020E
:103678001A631A6B02F080020192019A02941A6B83
:1036880042F004021A631A6B02F004020292029AD0
:1036980003941A6B42F001021A631A6B02F00102DA
:1036A8000392039A04941A6B42F010021A631A6B7D
:1036B80002F010020492049A05941A6B42F0080270
:1036C8001A631A6B02F008020592059A06941A6B9F
:1036D80042F002021A631B6B03F002030693069B77
:1036E800344F224610213846FDF7E5FFAF230793F4
:1036F800314E08960225099507A93048FDF7F0FED6
:103708004FF01008CDF81C800896099507A92C4899
:10371800FDF7E6FE4FF4F85307930896099507A9B5
:103728002848FDF7DDFECDF81C8001230893099495
:103738000A9407A93846FDF7D3FE224621460620FB
:10374800FDF7E8FB0620FDF719FC22462146072075
:10375800FDF7E0FB0720FDF711FC22462146082073
:10376800FDF7D8FB0820FDF709FC22462146092071
:10377800FDF7D0FB0920FDF701FC224621460A206F
:10378800FDF7C8FB0A20FDF7F9FB22462146172062
:10379800FDF7C0FB1720FDF7F1FB22462146282044
:1037A800FDF7B8FB2820FDF7E9FB0CB0BDE8F08178
:1037B80000380240000C02400000311000000240B6
:1037C800000802400010024000B583B000210191BA
:1037D800094B1A6B42F400121A631B6B03F40013B3
:1037E8000193019B0A461020FDF794FB1020FDF77A
:1037F800C5FB03B05DF804FB0038024008B5094872
:10380800094B0360094B436000238360C3604FF496
:103818008042026143618361C3610362FEF75CF920
:1038280008BD00BF8C00002000540040A0860100A5
:1038380070B584B0002500950195029503950F4C4D
:103848000F4B23604FF480336360A5602561A56149
:103858002562E5620B4BA362E5600126E6612563FC
:1038680066612046FDF778F90A23009301960295D0
:1038780069462046FDF774FA04B070BD4C0100207B
:10388800002001400100000F08B50948094B0360FA
:103898004FF40072426000238360C36002614BF6FC
:1038A800803242618361C3610362FEF78DFC08BD0B
:1038B800F0010020003C004030B587B0002402949D
:1038C800039404940594009401940E4D4FF08043A2
:1038D8002B6022236B60AC603123EB602C6128469F
:1038E800FFF72CFD4FF48053029302A92846FFF7F7
:1038F80080FB0094019469462846FFF738FD07B01D
:1039080030BD00BFB401002030B583B0002400945E
:103918000194074D074B2B602846FDF751FB009497
:103928000194224669462846FDF793FB03B030BD53
:10393800940100200074004010B5044601281BD0F3
:10394800022C20D0042C25D0082C2AD0202C2FD0B3
:10395800802C34D0102C39D0B4F5807F3DD0B4F50C
:10396800007F42D0B4F5806F47D0B4F5006F4CD0DB
:10397800B4F5805F51D010BD01212C48FDF794FEAD
:103988002B4B1870DCE702212848FDF78DFE284BE9
:103998005870D7E704212548FDF786FE244B987018
:1039A800D2E708212148FDF77FFE214BD870CDE7EB
:1039B80020211E48FDF778FE1D4B1871C8E78021AD
:1039C8001A48FDF771FE1A4B5871C3E710211948C0
:1039D800FDF76AFE164B9871BEE74FF480711648E2
:1039E800FDF762FE124BD871B9E74FF40071124827
:1039F800FDF75AFE0E4B1872B4E74FF480610E487B
:103A0800FDF752FE0A4B5872AFE74FF400610A48BF
:103A1800FDF74AFE064B9872AAE74FF48051064814
:103A2800FDF742FE024BD872A5E700BF0000024036
:103A3800A801002000080240001002400023184698
:103A480000E001330B2B05DC034AD25C002AF8D0D6
:103A58000130F6E7704700BFA801002070B598B0A4
:103A6800302200210DEB020001F013FA0024079424
:103A7800089409940A940B94039404940594069466
:103A880001941F4B1A6C42F080521A641B6C03F0AD
:103A980080530193019B02941A4B1A6842F48042A6
:103AA8001A601B6803F480430293029B01260C965C
:103AB8004FF480330D93022512954FF4800313932E
:103AC80004231493A8221592169517930CA8FEF7B1
:103AD8006BFE0F230793089509944FF4A0530A939C
:103AE8004FF480530B93052107A8FFF795F8039629
:103AF80032230493059503A8FFF750F918B070BD59
:103B0800003802400070004000B593B0FCF760FF39
:103B1800FFF7A4FFFFF79EFDFFF756FEFFF76EFEC7
:103B2800FFF786FEFFF7B0FEFFF7C6FEFFF7ECFED5
:103B3800264C01231193442204F11001684601F038
:103B48009DF994E80F00FFF769FC2820FFF71EFD98
:103B58000320FFF7F9FCFFF747FD00211C48FDF79C
:103B680041FA1C48FFF739FA04221B491B48FEF7A3
:103B780077FA1B4C2046FDF719F80A212046FDF775
:103B880091F80028F5D12046FDF7E7F807EE900AEE
:103B9800F8EE676A9FED137AC6EE877A124BC3ED8B
:103BA800007A9FED127A67EE877A17EE900AFCF793
:103BB8006BFC41EC100B00F06BFA51EC100BFCF7AE
:103BC80043FDC0B2FFF7E2FCD3E700BF8C00002042
:103BD80094010020B401002044010020F0010020DD
:103BE8004C01002000F07F45E0000020000020424A
:103BF8000368B3F1804F00D0704710B5FFF71EFF80
:103C080018B1214B1B783BB910BD00230822194677
:103C18001E48FDF743FAF4E71D4C238807EE903A57
:103C2800F8EEE77A9FED1B0A67EE807A9FED1A0A95
:103C380087EE800A00F0B4FAF7EE007A30EE270A31
:103C4800164B83ED000ADFED167A20EE270ABCEE4C
:103C5800C00A10EE103A9BB2082200210B48FDF76B
:103C68001DFA238801339BB2238007EE903AF8EEC1
:103C7800E77A9FED0C7AF4EEC77AF1EE10FAC3DD1D
:103C880000222280C0E700BFA80100209401002084
:103C98008000002097C92C4500803B478800002001
:103CA8000000FE428C2EDA427047000082B00021EC
:103CB80000910B4B5A6C42F480425A645A6C02F4DD
:103CC80080420092009A01911A6C42F080521A6464
:103CD8001B6C03F080530193019B02B0704700BF37
:103CE8000038024000B589B000230393049305937C
:103CF80006930793026803F1804303F590339A42D1
:103D080002D009B05DF804FB0021019103F58C3362
:103D18005A6C42F480725A645A6C02F480720192AE
:103D2800019A02911A6B42F004021A631B6B03F0AA
:103D380004030293029B012303930323049303A91F
:103D48000148FDF7CDFBDCE70008024000B589B06B
:103D58000023039304930593069307930268134B78
:103D68009A4202D009B05DF804FB0021019103F5E5
:103D7800E2331A6C42F000521A641A6C02F00052D4
:103D88000192019A02911A6B42F001021A631B6BAD
:103D980003F001030293029B10230393032304936C
:103DA80003A90348FDF79CFBDCE700BF0074004053
:103DB8000000024030B589B00023039304930593B3
:103DC800069307930268154B9A4201D009B030BD9B
:103DD80000250195124C236B43F002032363236BE8
:103DE80003F002030193019B4FF410730393122312
:103DF800049301230593032306930423079303A93C
:103E08000848FDF76DFB0295236C43F40013236407
:103E1800236C03F400130293029BD7E7005400407D
:103E28000038024000040240F0B589B00023039333
:103E3800049305930693079302682E4B9A4201D088
:103E480009B0F0BD04460025009503F5FE331A6C51
:103E580042F400421A641A6C02F400420092009A7A
:103E680001951A6B42F004021A631A6B02F00402FD
:103E78000192019A02951A6B42F001021A631B6BB8
:103E880003F001030293029B4FF4A4530393022708
:103E980004970626079603A91748FDF721FB4FF458
:103EA80000430393049705950695079603A91348BD
:103EB800FDF716FB1248134B0360456040238360EF
:103EC800C5604FF4806303614FF4006343614FF4AE
:103ED800005383614FF48073C36105624562FDF747
:103EE80071F918B9064BA3639C63A9E7FFF7DCFED9
:103EF800F8E700BF003C0040000802400000024014
:103F0800E4000020886002400368B3F1804F00D0CD
:103F1800704700B583B00021019103F50E331A6C88
:103F280042F001021A641B6C03F001030193019B28
:103F38000A461C20FCF7EEFF1C20FDF71FF803B013
:103F48005DF804FB7047FEE7FEE7FEE7FEE7704713
:103F58007047704708B5FCF755FD08BD08B5012046
:103F6800FDF7B0FB08BD08B50220FDF7ABFB08BDA7
:103F780008B50420FDF7A6FB08BD08B50820FDF725
:103F8800A1FB08BD08B51020FDF79CFB08BD00008B
:103F980008B50248FDF7B6F908BD00BFE4000020E7
:103FA80008B52020FDF78EFB8020FDF78BFB4FF432
:103FB8008070FDF787FB4FF40070FDF783FB08BDA9
:103FC80008B50248FFF79DF808BD00BFB4010020FE
:103FD80008B54FF48060FDF775FB4FF40060FDF7FE
:103FE80071FB4FF48050FDF76DFB08BD0F49D1F808
:103FF800883043F47003C1F888300D4B1A6842F0DA
:1040080001021A60002098601A6822F0847222F473
:1040180080321A60074A5A601A6822F480221A60AD
:10402800D8604FF000638B60704700BF00ED00E080
:104038000038024010300024DFF834D0002103E0BB
:104048000C4B5B58435004310B480C4B42189A42B6
:10405800F6D30B4A02E0002342F8043B094B9A428C
:10406800F9D3FFF7C3FF00F0E5FEFFF74DFD7047FA
:1040780000000220C4520008000000200C000020AC
:104088000C00002050020020FEE7000000000000A5
:1040980051EC100BC1F30A532DE9F041A3F2FF359F
:1040A800132D0C460F4610EE106A22DC002D4DDB56
:1040B800394B43FA05F801EA080303431ED034A339
:1040C800D3E90023FCF782F800220023FCF7B2FAB8
:1040D80048B1002C04DD4FF4801343FA05F52F4452
:1040E80027EA080400262346324643EC102BBDE895
:1040F800F081332D06DDB5F5806F39D041EC100B1A
:10410800BDE8F081A3F213434FF0FF3828FA03F813
:1041180018EA000FF2D01EA3D3E90023FCF756F8E3
:1041280000220023FCF786FA0028DCD0002C09DDE9
:10413800142D27D00123C5F1340503FA05F5AE196E
:1041480028BFFF1826EA08063C46CCE710A3D3E9A7
:104158000023FCF73BF800220023FCF76BFA002849
:10416800C1D0002C10DB26430AD000260B4CBAE73E
:1041780010EE102A0B46FCF729F841EC100BBFE7AC
:104188003446B0E70137DDE700264FF00044AAE7E0
:104198009C7500883CE4377EFFFF0F000000F03F6D
:1041A80000B510EE103A214A23F00043934283B041
:1041B8001ADDB3F1FF4F04DB30EE400A03B05DF8BF
:1041C80004FB684600F036F800F00300012813D01D
:1041D800022820D0B8B1DDED010A9DED000A00F0FB
:1041E80075F9B1EE400AE9E70020DFED110A00F0A9
:1041F80017FD03B05DF804FBDDED010A9DED000A33
:1042080000F064F9DAE70120DDED010A9DED000A0E
:1042180000F006FDD2E70120DDED010A9DED000A60
:1042280000F0FEFCB1EE400AC8E700BFD80F493FD6
:104238000000000070B510EE103A964A23F00044D2
:10424800944286B0054669DD934A944210EE106A9E
:104258001ADC002B24F00F04DFED907A904A64DD1D
:10426800944270EE677A00F0CF809FED8E7A77EEF9
:10427800C76A012077EEE67AC5ED006A77EEC77A5D
:10428800C5ED017A06B070BD874A944261DDB4F18C
:10429800FF4F80F2B180E215863AA4EBC25307EED5
:1042A800903ABDEEE77ADFED816AB8EEC77A77EE2D
:1042B800C77A8DED037A67EEA67ABDEEE77AB8EE97
:1042C800C77A77EEC77A8DED047A67EEA67AF5EEAF
:1042D800407AF1EE10FACDED057A40F0C780B5EEE0
:1042E800407AF1EE10FA0CBF0123022370490191C4
:1042F8000221009103A8294600F06AF9002E12DA7B
:1043080095ED007AD5ED017AB1EE477AF1EE677A4C
:10431800404285ED007AC5ED017A04E0002285ED82
:10432800000A4260002006B070BD944270EE277A01
:1043380000F089809FED5B7A77EE876A4FF0FF3057
:1043480077EEE67AC5ED006A77EE877AC5ED017AF1
:10435800E9E700F0ADFCDFED576ADFED505A9FED5D
:10436800517AF6EE007AE0EE267AFDEEE77A17EE5D
:10437800900AF8EEE76A1F28B1EE666AA6EE250AEB
:1043880066EE877A52DD30EE677A17EE103AE4155A
:10439800C3F3C753E31A082B52DDDFED477A9FEDCD
:1043A800477AF0EE405AE6EE275A30EE650AA6EE56
:1043B800270AF0EE407AD6EE877A35EEE77A17EEDE
:1043C800103AC3F3C753E41A192C51DC85ED007A6F
:1043D800B0EE650A30EE470A002E30EE670A85ED2A
:1043E800010AA0DAB1EE477AB1EE400A85ED007A0B
:1043F80085ED010A404296E770EE407A0020C5ED4F
:10440800017AC5ED007A8EE7DFED2B6A9FED2B7AF6
:1044180077EEE67A012077EEC76A77EEE67AC5EDA1
:10442800006A77EEC77AC5ED017A7CE7421E244B15
:1044380053F8223024F0FF029A4230EE677AA4D073
:1044480085ED007AC6E7DFED1C6A9FED1C7A77EEF2
:10445800A67A4FF0FF3077EE876A77EEE67AC5EDF9
:10446800006A77EE877AC5ED017A5CE703233DE7BA
:104478009FED147A9FED145AB0EE650AA6EE070A6E
:1044880075EEC07AE6EE077AD6EE857A30EE677A70
:10449800D6E700BFD80F493FE3CB1640800FC93F8E
:1044A800D00FC93F43443537800F4943000080434C
:1044B800644F000884F9223F0044353708A3852E4D
:1044C800E44E000800A3852E32318D2410EE103AF8
:1044D80023F00043B3F1485F2CDAFDEEC07A17EE03
:1044E800903A002B5BD020EE007ADFED314A9FED49
:1044F800315ADFED315A9FED316ADFED317ADFED68
:10450800316AA7EE245AE7EE055AA7EE256AE7EEC8
:10451800067AE7EE276A66EE876A60EEC00AB6EEAC
:10452800006AE7EE260AF7EE007AD7EE060A37EEBB
:10453800E00A704720EE007ADFED1D4A9FED1D5A14
:10454800DFED1D5A9FED1D6ADFED1D7ADFED1D6A57
:104558001D4AA7EE245A9342E5EE075AA5EE876A4C
:10456800E6EE077AE7EE876A66EE876AD5DD174AD0
:10457800934217DC03F17F4307EE903AB7EE006AE7
:1045880036EE676A60EEC00AF6EE005AE7EE260AD3
:10459800D7EE257A77EEE07A36EE670A7047B7EEFF
:1045A800000A7047B6EE076AF5EE027AEAE700BF3E
:1045B8004ED747ADF6740F317CF293B4010DD03766
:1045C800610BB6BAABAA2A3D9999993E0000483FBB
:1045D8002DE9F04F2DED048BD7B003F1FF3902938D
:1045E800D31E48BF131DB24C649D0591DB1023EA0E
:1045F800E37354F82560039303F10108A2EBC8089C
:1046080016EB09028646A3EB090316D41A449FED5C
:10461800A97A6598511C1AAA002BA4BF50F8234008
:1046280007EE904A03F10103ACBFF8EEE77AF0EE2B
:10463800477A8B42E2EC017AEED1029B002E4FEAD8
:1046480083044FEA860A1DDB1AAB181943AA73467E
:10465800191902EB0A0742ADF446B9F1000FDFED74
:10466800957A09DB02466346F3EC016A32ED017A7A
:104678008B42E6EE877AF7D1E5EC017ABD4200F18C
:104688000400EAD1AAF1080306ADEB1804939FEDE4
:104698008B9ADFED898A009605ABB34674449A4439
:1046A80042AF76464FEA8B0156AB0B44BBF1000F85
:1046B80013ED140A16DD07EB8B032A4660EE097A20
:1046C800B0EE407AFDEEE77A73ED016AF8EEE77A2C
:1046D800BB42A7EEE87A37EEA60ABDEEC77AA2EC8F
:1046E800017AEBD14046019100F030FBB0EE408AF0
:1046F800B4EE000A28EE000A00F0E2FAF2EE007AC0
:10470800A0EE678AB8F1000F0199FDEEC89AF8EE9D
:10471800E97A38EE678A40F3C4800BF1FF3CC8F1B0
:10472800080355F82C2042FA03F000FA03F3D31AD1
:1047380045F82C3019EE90CA8444C8F1070209EEF6
:1047480090CA43FA02F2002A31DD19EE903ABBF121
:10475800000F03F1010309EE903A40F3298228681B
:10476800002840F08680BBF1010F0BD0AE464FF019
:10477800010C5EF8040F0CF1010300287CD19B4565
:104788009C46F6D1B8F1000F0EDDB8F1010F00F02C
:104798003281B8F1020F07D10BF1FF3155F8213002
:1047A80003F03F0345F82130022A00F01281B5EEEC
:1047B800408AF1EE10FA40F09580009B0BF1FF3C27
:1047C80063450EDC0BF18041013905EB81010020C6
:1047D80051F80439514540EA0300F9D1002840F066
:1047E8001381009B013B55F82330002B40F00081DA
:1047F800049B4FF0010C53F804290CF1010C002A1A
:10480800F9D0DC440BF1010EE64530DC039B029A3B
:104818000EEB03015A4403EB0C0B1AAB01F1804178
:1048280003EB8202659B013903EB810107EB8E0ED6
:1048380003EB8B0B51F8043F9FED1E7A07EE903A7D
:10484800F8EEE77A1046B9F1000FE0EC017A09DBDF
:10485800334601E072ED017AF3EC016AA342A6EE59
:10486800A77AF7D15945AEEC017A0246E2D1E34680
:1048780018E701234FF0000CC0F580709B4545F800
:104888002C000CDD55F82300294405EB830300E0D8
:104898001868C0F1FF0043F8040B8B42F8D10120DF
:1048A80070E70FD10BF1FF3355F8232012124AE7B6
:1048B800A852000800000000000080430000803B70
:1048C8000000C93FF6EE007AB4EEE78AF1EE10FA7E
:1048D80080F25881B5EE408AF1EE10FA4FF00002EE
:1048E8003FF46BAFB0EE480AC8F100009146009E55
:1048F80000F02CFA1FED107AB4EEC70AF1EE10FAA8
:10490800C0F258815FED137A60EE277A0BF101034C
:10491800FDEEE77A08F10808F8EEE77AA7EEC70A8D
:10492800FDEEE77ABDEEC00A10EE102A45F82B20FE
:1049380017EE902A45F823204046B7EE000A009368
:1049480000F004FA009B002BC0F24B81980042AAA9
:1049580000F1040C1FED277A1044011D05EB0C0231
:1049680072ED017AF8EEE77AAA4267EE807A20EED5
:10497800070A61ED017AF3D10DF1B80E1FED306A27
:104988000546774603F101080024002EC0F2058190
:10499800A148DFEDA27A2946B0EE467A002203E06C
:1049A800A24208DCB0EC017AF1EC016A01329642CD
:1049B800E6EE877AF4DA01344445E7EC017AA5F1AA
:1049C8000405E2D1649A032A53D8DFE802F0CAB694
:1049D800B65BB7EE000A30EE488A00283FF4E7AE2F
:1049E8004046019200F0B2F9019A38EE408ADEE6BC
:1049F8004FF0010C05E70BF1FF3155F8213003F0BA
:104A08007F0345F82130CFE6914655F82C20009ECB
:104A18006346A8F10808002A8ED10CF18042013AB9
:104A280005EB820252F80419013BA8F10808002995
:104A3800F8D081E74A46DFED797A002A40F0C28053
:104A48009DED2E7A059A002BC2ED007A77EE677AF3
:104A58000CDD2FA90122B1EC017A0132934277EEE5
:104A6800877AF8DA4B46002B40F0B880059BC3EDF7
:104A7800017A19EE903A03F0070057B0BDEC048BA9
:104A8800BDE8F08F002B40F3C480980056AA02447A
:104A98000DF1B80E03F1804152ED286A01390EEB91
:104AA800830272ED017A37EEA67A964577EEC77AD9
:104AB80082ED007A77EEA67AF0EE476AC2ED017AC7
:104AC800EFD1012B40F3A58056AB184489000B1D8C
:104AD80050ED286A73442FAA73ED017A37EEA67A4F
:104AE8009A4277EEC77A83ED007A77EEA67AF0EEEF
:104AF800476AC3ED017AEFD10831DFED487A0EEB52
:104B080001030EF1080E33ED017A9E4577EE877AA0
:104B1800F9D14B46DDED2E6A9DED2F7A2BB1F1EEE2
:104B2800666AB1EE477AF1EE677A059BC3ED006AD3
:104B380083ED017AC3ED027A9BE7002BFFF67AAF8B
:104B48002EA901EB8302DFED357A043232ED017ACA
:104B5800914277EE877AF9D14A46002A3FF470AF3E
:104B680030E0DFED2E7AF4443CED017AE64577EE4D
:104B7800877AF9D14B460BB1F1EE677A059BC3ED05
:104B8800007A76E719EE903ABBF1000F03F10103C2
:104B980009EE903A37DD0222E1E5DFED207A0134B3
:104BA8004445E7EC017AA5F104057FF4EEAE09E788
:104BB8000020E7E5BDEEC00A5B4610EE102A45F876
:104BC8002B20B9E6DDED2E6A059AB1EE677A002B47
:104BD80076EEE77A82ED007A3FF73BAFF1EE677A3F
:104BE80044E7649A032A3FF644AF01A151F822F042
:104BF800094C0008434B0008434B00088D4A000845
:104C0800DFED067AB6E7F7EE007A37EEC88A0222B9
:104C1800CDE5DFED027A7CE7805200080000000055
:104C280010EE103A23F00043B3F1485F04DAFDEECA
:104C3800C07A17EE903A23B360EE007A9FED155ACA
:104C4800DFED155A9FED156ADFED156A9FED157AB0
:104C5800E7EE855A20EE275AA5EEA76AE6EE276A00
:104C6800A6EEA77A70B127EE457AF6EE006AA0EEB6
:104C7800A67ADFED0D6AD7EE270AE5EE260A30EEB2
:104C8800600A7047DFED096AE7EE876AA6EE850AD3
:104C9800704700BFD3C92E2F342FD7B21BEF383639
:104CA800010D50B98988083CABAA2A3EABAA2ABE96
:104CB80010EE103A23F0004300EE103A704700BFA0
:104CC80010EE102A22F00041CB0D7F3B162B1CDC86
:104CD800002B10EE100A1EDB194919410A4227D091
:104CE800DFED187A70EE277AF5EEC07AF1EE10FA59
:104CF8001EDD002A04DA4FF4000242FA03F31844D6
:104D080020EA010300EE103A7047B1F1FF4F0FD3CC
:104D180030EE000A7047DFED0B7A70EE277AF5EE79
:104D2800C07AF1EE10FA03DD002A02DB9FED060AD5
:104D380070470029FFEE007A18BFB0EE670A704787
:104D4800FFFF7F00CAF249710000000008B510EEAD
:104D5800103A33F000422DED028B11D0B2F1FF4F23
:104D680011D2B2F5000F13D3D20D0244FE2A1CDC77
:104D7800002A2ADD23F0FF4343EAC25300EE103A2B
:104D8800BDEC028B08BDBDEC028B30EE000A08BDFD
:104D98001D4BDFED1E7A984220EE270A10DB10EE3D
:104DA800103AC3F3C752193ADFE79FED198AF0EEBC
:104DB800400AB0EE480A00F031F820EE080ADFE7B2
:104DC800DFED140A20EE200ADAE712F1160F0EDAE8
:104DD8004CF250339842E8DC9FED0E8AF0EE400A20
:104DE800B0EE480A00F01AF820EE080AC8E71932AF
:104DF80023F0FF4343EAC253DFED077A00EE103A8F
:104E080020EE270ABCE700BFB03CFFFF0000004CC3
:104E1800CAF249716042A20D0000003310EE103A48
:104E280010EE902A23F0004302F00042134300EEF4
:104E3800103A704770B50D4E0D4CA41BA4100025F8
:104E4800A54209D10B4E0C4C00F02CF8A41BA41061
:104E58000025A54205D170BD56F825309847013583
:104E6800EEE756F8253098470135F2E7BC520008BE
:104E7800BC520008BC520008C052000810B5431EBE
:104E88000A44914200D110BD11F8014B03F8014FBB
:104E9800F7E702440346934200D1704703F8011B29
:104EA800F9E70000F8B500BFF8BC08BC9E4670479B
:0C4EB800F8B500BFF8BC08BC9E4670476F
:104EC4000006101600061016000000000000000086
:104ED400010203040607080900000000010203049C
:104EE400000FC93F000F494000CB9640000FC94056
:104EF4000053FB4000CB164100ED2F41000F494108
:104F04000031624100537B41003A8A4100CB964113
:104F1400005CA34100EDAF41007EBC41000FC941DC
:104F240000A0D5410031E24100C2EE410053FB41F3
:104F340000F20342003A0A420083104200CB1642B8
:104F440000141D42005C234200A5294200ED2F42BB
:104F540000363642007E3C4200C74242000F4942BE
:104F6400A2000000F9000000830000006E000000B1
:104F74004E0000004400000015000000290000005D
:104F8400FC0000002700000057000000D1000000D2
:104F9400F500000034000000DD000000C000000047
:104FA400DB00000062000000950000009900000092
:104FB4003C0000004300000090000000410000009D
:104FC400FE0000005100000063000000AB00000080
:104FD400DE000000BB000000C5000000610000000E
:104FE400B7000000240000006E0000003A0000003A
:104FF400420000004D000000D2000000E00000006C
:1050040006000000490000002E000000EA00000035
:1050140009000000D1000000920000001C00000004
:10502400FE0000001D000000EB0000001C0000005A
:10503400B100000029000000A70000003E000000AD
:10504400E80000008200000035000000F5000000C8
:105054002E000000BB00000044000000840000009B
:10506400E90000009C000000700000002600000021
:10507400B40000005F0000007E000000410000005A
:105084003900000091000000D60000003900000043
:10509400830000005300000039000000F400000009
:1050A4009C000000840000005F0000008B000000F2
:1050B400BD000000F9000000280000003B000000D3
:1050C4001F000000F800000097000000FF0000002F
:1050D400DE00000005000000980000000F00000042
:1050E400EF0000002F000000110000008B00000002
:1050F4005A0000000A0000006D0000001F000000BC
:105104006D000000360000007E000000CF000000AB
:1051140027000000CB00000009000000B7000000D9
:105124004F000000460000003F0000006600000041
:105134009E0000005F000000EA0000002D00000057
:105144007500000027000000BA000000C70000003E
:10515400EB000000E5000000F10000007B0000000F
:105164003D0000000700000039000000F7000000C7
:105174008A0000005200000092000000EA000000D3
:105184006B000000FB0000005F000000B1000000A5
:105194001F0000008D0000005D00000008000000FA
:1051A400560000000300000030000000460000002C
:1051B400FC0000007B0000006B000000AB0000005E
:1051C400F0000000CF000000BC0000002000000040
:1051D4009A000000F4000000360000001D000000EA
:1051E400A9000000E300000091000000610000003D
:1051F4005E000000E60000001B0000000800000044
:105204006500000099000000850000005F000000B8
:1052140014000000A000000068000000400000002E
:105224008D000000FF000000D80000008000000096
:105234004D00000073000000270000003100000052
:1052440006000000060000001500000056000000E3
:10525400CA00000073000000A8000000C90000009C
:1052640060000000E20000007B000000C0000000BD
:105274008C0000006B0000000000C93F0000F03902
:105284000000DA370000A2330000842E0000502B07
:105294000000C2270000D0220000C41F0000C61B6B
:1052A400000044170400000007000000090000008B
:0852B4000CB4FF7F01000000B3
:0452BC00AD01000838
:0452C0008901000858
:0C52C40001000000100000000024F400B5
:04000005080040416E
:00000001FF
