:020000040800F2
:1000000000000220514500084D4400084F440008FC
:100010005144000853440008554400080000000003
:10002000000000000000000000000000574400082D
:1000300059440008000000005B4400085D440008CB
:10004000A1450008A1450008A1450008A1450008F8
:10005000A1450008A1450008654400086F44000858
:1000600079440008834400088D440008A145000835
:10007000A1450008A1450008A1450008A1450008C8
:1000800099440008A1450008A1450008A1450008C1
:10009000A1450008A1450008A1450008A9440008A1
:1000A000A1450008A1450008A1450008A145000898
:1000B000C9440008D9440008A1450008A14500082A
:1000C000A1450008A1450008A1450008A145000878
:1000D000A1450008A1450008A1450008A145000868
:1000E000E9440008A1450008A1450008A145000811
:1000F000A1450008A1450008A1450008A145000848
:10010000A1450008A1450008A1450008A145000837
:10011000A1450008A1450008A1450008A145000827
:10012000A1450008A1450008A1450008A145000817
:10013000A1450008A1450008A1450008A145000807
:10014000A1450008A1450008A1450008A1450008F7
:10015000A1450008A1450008A1450008A1450008E7
:10016000A1450008A1450008A1450008A1450008D7
:10017000A1450008A1450008A145000800000000B5
:08018000A1450008A14500089B
:1001880010B5054C237833B9044B13B10448AFF3C9
:1001980000800123237010BD7C00002000000000B7
:1001A800CC60000808B5034B1BB103490348AFF303
:1001B800008008BD0000000080000020CC6000081E
:1001C80081F0004102E000BF83F0004330B54FEA00
:1001D80041044FEA430594EA050F08BF90EA020F6D
:1001E8001FBF54EA000C55EA020C7FEA645C7FEA00
:1001F800655C00F0E2804FEA5454D4EB5555B8BF23
:100208006D420CDD2C4480EA020281EA030382EA93
:10021800000083EA010180EA020281EA0303362D25
:1002280088BF30BD11F0004F4FEA01314FF4801CF8
:100238004CEA113102D0404261EB410113F0004F0A
:100248004FEA03334CEA133302D0524263EB4303C1
:1002580094EA050F00F0A780A4F10104D5F1200E5F
:100268000DDB02FA0EFC22FA05F2801841F10001BA
:1002780003FA0EF2801843FA05F359410EE0A5F18E
:1002880020050EF1200E012A03FA0EFC28BF4CF0BF
:10029800020C43FA05F3C01851EBE37101F0004575
:1002A80007D54FF0000EDCF1000C7EEB00006EEB82
:1002B8000101B1F5801F1BD3B1F5001F0CD349080C
:1002C8005FEA30004FEA3C0C04F101044FEA445263
:1002D80012F5800F80F09A80BCF1004F08BF5FEAEA
:1002E800500C50F1000041EB045141EA050130BDCA
:1002F8005FEA4C0C404141EB010111F4801FA4F16D
:100308000104E9D191F0000F04BF01460020B1FAC1
:1003180081F308BF2033A3F10B03B3F120020CDAF9
:100328000C3208DD02F1140CC2F10C0201FA0CF0D7
:1003380021FA02F10CE002F11402D8BFC2F1200C3C
:1003480001FA02F120FA0CFCDCBF41EA0C019040F2
:10035800E41AA2BF01EB0451294330BD6FEA04043B
:100368001F3C1CDA0C340EDC04F11404C4F1200226
:1003780020FA04F001FA02F340EA030021FA04F338
:1003880045EA030130BDC4F10C04C4F1200220FA8F
:1003980002F001FA04F340EA0300294630BD21FACD
:1003A80004F0294630BD94F0000F83F4801306BF93
:1003B80081F480110134013D4EE77FEA645C18BF87
:1003C8007FEA655C29D094EA050F08BF90EA020F1E
:1003D80005D054EA000C04BF1946104630BD91EA16
:1003E800030F1EBF0021002030BD5FEA545C05D119
:1003F8004000494128BF41F0004130BD14F5800458
:100408003CBF01F5801130BD01F0004545F0FE41CB
:1004180041F470014FF0000030BD7FEA645C1ABF00
:10042800194610467FEA655C1CBF0B46024650EA37
:10043800013406BF52EA033591EA030F41F4002163
:1004480030BD00BF90F0000F04BF0021704730B5E9
:100458004FF4806404F132044FF000054FF00001BE
:1004680050E700BF90F0000F04BF0021704730B57F
:100478004FF4806404F1320410F0004548BF404254
:100488004FF000013EE700BF42004FEAE2014FEAA9
:1004980031014FEA02701FBF12F07F4393F07F4F84
:1004A80081F06051704732F07F4208BF704793F087
:1004B8007F4F04BF41F40021704730B54FF460749A
:1004C80001F0004521F000411CE700BF50EA01029D
:1004D80008BF704730B54FF000050AE050EA010246
:1004E80008BF704730B511F0004502D5404261EBB6
:1004F80041014FF4806404F132045FEA915C3FF4F7
:10050800D8AE4FF003025FEADC0C18BF03325FEA93
:10051800DC0C18BF033202EBDC02C2F1200300FA44
:1005280003FC20FA02F001FA03FE40EA0E0021FA69
:1005380002F11444BDE600BF4FEA4102B2F1E043C4
:1005480024BFB3F5001CDCF1FE5C0DD901F0004CB2
:100558004FEAC0024CEA5070B2F1004F40EB830002
:1005680008BF20F00100704711F0804F21D113F12E
:100578003872BCBF01F00040704741F480114FEA67
:100588005252C2F11802C2F1200C10FA0CF320FAF0
:1005980002F018BF40F001004FEAC1234FEAD3230D
:1005A80003FA0CFC40EA0C0023FA02F34FEA430377
:1005B800CCE77FEA625307D150EA01331EBF4FF000
:1005C800FE4040F44000704701F0004040F0FE401B
:1005D80040F40000704700BF53B94AB9002908BF6A
:1005E80000281CBF4FF0FF314FF0FF3000F072B908
:1005F800ADF1080C6DE904CE00F006F8DDF804E072
:10060800DDE9022304B070472DE9F047089E04464F
:100618008846002B4BD18A42154667D9B2FA82F236
:100628004AB1C2F1200701FA02F320FA07F7954010
:1006380047EA030894404FEA154E230CB8FBFEF72F
:100648001FFA85FC0EFB178843EA084307FB0CF1E9
:10065800994209D9EB1807F1FF3080F01B819942C4
:1006680040F21881023F2B445B1AA4B2B3FBFEF0A0
:100678000EFB103344EA034400FB0CFCA44509D9E3
:100688002C1900F1FF3380F00781A44540F2048162
:1006980002382C4440EA0740A4EB0C0400271EB1A2
:1006A800D4400023C6E900433946BDE8F0878B42B1
:1006B80009D9002E00F0EB800027C6E90001384672
:1006C8003946BDE8F087B3FA83F7002F47D18B424C
:1006D80002D3824200F2FA80841A61EB03030120FC
:1006E8009846002EE0D0C6E90048DDE702B9FFDEF3
:1006F800B2FA82F2002A40F08F80491B4FEA154E69
:100708001FFA85F80127B1FBFEFC230C0EFB1C1118
:1007180043EA014308FB0CF1994207D9EB180CF1A5
:10072800FF3002D2994200F2CD808446591AA3B212
:10073800B1FBFEF00EFB101443EA044408FB00F87A
:10074800A04507D92C1900F1FF3302D2A04500F2C9
:10075800B6801846A4EB080440EA0C409FE7C7F1AE
:10076800200CBB4022FA0CFE4EEA030E01FA07F4F5
:1007780020FA0CF521FA0CF34FEA1E482543B3FB87
:10078800F8F92C0C08FB19331FFA8EFA44EA0343D4
:1007980009FB0AF49C4202FA07F200FA07F10BD9A6
:1007A8001EEB030309F1FF3080F087809C4240F282
:1007B8008480A9F1020973441B1BADB2B3FBF8F0A6
:1007C80008FB103345EA034400FB0AFAA24508D99E
:1007D8001EEB040400F1FF336BD2A24569D902383D
:1007E800744440EA0940A0FB0289A4EB0A044C4582
:1007F800C2464B4654D351D0002E69D0B1EB0A05FE
:1008080064EB030404FA0CFCFD40FC404CEA0505CB
:10081800C6E90054002747E7C2F1200320FA03F78E
:10082800954001FA02F021FA03F34FEA154E3843D6
:10083800010CB3FBFEF71FFA85F80EFB173341EAEC
:10084800034107FB08F38B4204FA02F407D969183D
:1008580007F1FF3C2FD28B422DD9023F2944CB1AF6
:1008680081B2B3FBFEF00EFB103341EA034100FBFB
:1008780008F38B4207D9691800F1FF3C17D28B4265
:1008880015D902382944C91A40EA07473BE73746D1
:10089800304609E70746E7E61846FBE64145ABD28E
:1008A800B8EB020A69EB0E0201381346A4E760466A
:1008B800E9E7184695E76746D1E781467CE70238BD
:1008C8002C4447E7ACF1020C2B442FE7384608E7E5
:1008D8003746E9E6704700BF10B504460E4B187856
:1008E8004FF47A73B3FBF0F30C4A1068B0FBF3F0E3
:1008F80000F01EFA68B90F2C01D901200AE0002285
:1009080021464FF0FF3000F0D3F9034B5C60002024
:1009180000E0012010BD00BF0000002010000020F2
:1009280008B50B4B1A6842F400721A601A6842F450
:1009380080621A601A6842F480721A60032000F01C
:10094800A5F90020FFF7C8FF03F014FC002008BD3C
:10095800003C0240034A1168034B1B780B441360A8
:10096800704700BFFC00002000000020014B186801
:10097800704700BFFC000020494B5A6822F44032FF
:100988005A605A6841680A435A600268536823F4F7
:100998008073536002685368016943EA0123536016
:1009A8000268536823F04073536002685368816893
:1009B8000B4353600268936823F4006393600268F2
:1009C8009368C1680B439360826A364B9A4249D058
:1009D8000268936823F07063936002689368816A81
:1009E8000B4393600268936823F040539360026856
:1009F8009368C16A0B4393600268936823F002030B
:100A0800936002689368816943EA41039360036ACB
:100A1800002B32D10268536823F4006353600268E4
:100A2800D36A23F47003D3620168CB6AC269013ABE
:100A380043EA0253CB620268936823F4007393601D
:100A480002689368016B43EA4123936002689368E4
:100A580023F48063936002689368416943EA8123C1
:100A6800936070470268936823F07063936002682C
:100A7800936823F040539360BEE70268536843F4D9
:100A8800006353600268536823F46043536001684D
:100A98004B68426A013A43EA42334B60BFE700BF02
:100AA800002301400100000F30B310B50446036C69
:100AB80043B1236C13F0100F0AD00120002384F8EF
:100AC8003C3010BD436480F83C3003F06FFBF0E726
:100AD800236C23F4885323F0020343F002032364B6
:100AE8002046FFF749FF00206064236C23F00303CE
:100AF80043F001032364E1E70120704730B482B07A
:100B08000023019390F83C30012B00F0B7800123BB
:100B180080F83C300B68092B3ED90568EA689BB21F
:100B280003EB43031E3B072404FA03F322EA0303FF
:100B3800EB600568EA688C680B8803EB43031E3B8F
:100B480004FA03F31343EB604B68062B3AD80568A5
:100B58006A6B03EB8303053B1F2404FA03F322EAC1
:100B680003036B6305686A6B4B6803EB8303053B00
:100B78000C8804FA03F313436B630268404B9A42F0
:100B880050D002683E4B9A4255D0002380F83C3042
:100B9800184602B030BC704705682A699BB203EB5F
:100BA8004303072404FA03F322EA03032B610568CD
:100BB8002A698C680B8803EB430304FA03F3134395
:100BC8002B61C1E70C2B16D805682A6B03EB83034E
:100BD800233B1F2404FA03F322EA03032B6305686B
:100BE8002A6B4B6803EB8303233B0C8804FA03F35B
:100BF80013432B63C1E70568EA6A03EB8303413BB0
:100C08001F2404FA03F322EA0303EB620568EA6A85
:100C18004B6803EB8303413B0C8804FA03F313434B
:100C2800EB62AAE70B68122BABD1164A536843F460
:100C380080035360A5E70B68103B012BA5D8114A28
:100C4800536843F4000353600B68102B9DD10E4B7F
:100C58001B6802F1467202F52E3202F28332A2FBC1
:100C680003239B0C03EB83035A00019202E0019BD0
:100C7800013B0193019B002BF9D186E7022088E70D
:100C8800002001400023014010000020074AD368DB
:100C980023F4E0631B041B0C000200F4E06018431B
:100CA80040F0BF6040F40030D060704700ED00E0D5
:100CB80030B4174BDB68C3F30223C3F10704042CD9
:100CC80028BF04241D1D062D18D9033B4FF0FF35FE
:100CD80005FA04F421EA0401994005FA03F322EA2B
:100CE8000303194300280BDB0901C9B200F1604076
:100CF80000F5614080F8001330BC70470023E5E739
:100D080000F00F000901C9B2024B1954F4E700BF03
:100D180000ED00E014ED00E000F01F02400901239F
:100D28009340024A42F82030704700BF00E100E0DB
:100D38000138B0F1807F0AD2064B5860064AF0218C
:100D480082F823100020986007221A60704701205B
:100D5800704700BF10E000E000ED00E070B110B592
:100D68000446037933B10223237100202061012353
:100D7800237110BD437103F04DFAF4E70120704769
:100D88004379012B31D010B401234371022202713F
:100D9800046822688B4013432360B1B90268116864
:100DA800136803F0380311F0040F01D0382B07D073
:100DB800012303710023437118465DF8044B704703
:100DC800536843F001035360F2E70268116813683F
:100DD80003F4601311F4802FEAD0B3F5601FE7D154
:100DE800536843F002035360E2E7022070474379F7
:100DF800012B1FD070B401254571022303710668C9
:100E0800336840F6FE74944023EA04040B6849688A
:100E18000B4393402343336004682368C02101FADD
:100E280002F223EA02022260057100234371184688
:100E380070BC70470220704710B483B0002401943E
:100E48000068019051B101990A4414320192019A43
:100E58001360002003B05DF8044B704701990A4401
:100E680008320192F3E730B405682C6824F4802432
:100E78002C60046863608368402B05D00368996020
:100E88000368DA6030BC704703689A600368D96009
:100E9800F8E700000268D3B2103B0B49A1FB03132B
:100EA8001B090A49C95CC165032B06D822F47F7265
:100EB80022F003028265806D704722F47F7222F06F
:100EC800030204328265F6E7ABAAAAAAE460000826
:100ED800836A826992B9012B0AD01BB1022B01D017
:100EE80000207047C36A13F0807F2CD10020704720
:100EF800C36AB3F1C07F28D000207047B2F5005F05
:100F080005D0022B29D9032B15D000207047032BBD
:100F180003D8DFE803F01C041C0A00207047C36AEA
:100F280013F0807F15D100207047C36AB3F1C07FEA
:100F380011D000207047C36A13F0807F01D00120D0
:100F4800704700207047012070470120704701203A
:100F5800704701207047012070470120704700004A
:100F680070B50446FFF702FD002C5BD00546002350
:100F780084F83430022384F835302268136823F06B
:100F88000103136023681A6812F0010F0AD0FFF7F3
:100F9800EDFC401B0528F5D920236365032084F860
:100FA800350070BD1A68204810406168A2680A437D
:100FB800E1680A4321690A4361690A43A1690A434E
:100FC800E1690A43216A0A430243616A04291ED07F
:100FD8001A602668756925F00705636A1D43042BA6
:100FE80007D1A36A1D43E36A1BB12046FFF770FFD0
:100FF80090B975612046FFF74DFFE26D3F2393409E
:10100800836000206065012384F83530C9E7E16A10
:10101800206B01430A43DBE740236365012084F822
:101028003500BEE70120BCE73F8010F038B5856D7C
:1010380090F83440012C31D0012480F8344090F8E5
:101048003540E4B2012C04D0002380F8343002206B
:1010580038BD0446022084F835000020606520462B
:10106800FFF701FFE26D3F239340AB6022681368EE
:1010780043F0160313602268536943F080035361F9
:10108800236C23B12268136843F0080313602268B5
:10109800136843F0010313600020D9E70220D7E763
:1010A800F0B583B0044600230193724B1D68724B60
:1010B800A3FB0535AD0A876D3E68C26D08239340D2
:1010C800334210D003681A6812F0040F0BD01A6864
:1010D80022F004021A60C26D08239340BB60436D7E
:1010E80043F001034365E26D01239340334209D085
:1010F8002268526912F0800F04D0BB60636D43F020
:1011080002036365E26D04239340334209D02268E9
:10111800126812F0020F04D0BB60636D43F0040341
:101128006365E26D10239340334224D0226812682D
:1011380012F0080F1FD0BB6023681A6812F4802FC2
:101148000DD01B6813F4002F04D1236C9BB12046EB
:10115800984710E0A36C73B1204698470BE01A68D3
:1011680012F4807F03D11A6822F008021A60236CF7
:101178000BB120469847E26D20239340334255D067
:101188002268126812F0100F50D0BB6094F8353006
:10119800DBB2052B0ED023681A6812F4802F33D0E7
:1011A8001B6813F4002F2AD1636C002B3ED0204615
:1011B80098473BE02268136823F0160313602268FF
:1011C800536923F080035361236CA3B12268136829
:1011D80023F008031360E26D3F239340BB600023B4
:1011E80084F83430012384F83530236D002B3FD048
:1011F800204698473CE0A36C002BE7D1EBE7E36B74
:10120800A3B12046984711E01A6812F4807F09D1EB
:101218001A6822F010021A60002384F8343001237F
:1012280084F83530E36B0BB120469847636DFBB10A
:10123800636D13F0010F17D0052384F83530226849
:10124800136823F001031360019B01330193AB4240
:1012580004D823681B6813F0010FF5D1002384F824
:101268003430012384F83530E36C0BB120469847BD
:1012780003B0F0BD10000020B5814E1B00230F2BDA
:1012880000F2D780F0B482B039E0072200E00022F3
:10129800B2403A430234674E46F82420664A14683E
:1012A800EA4302EA04064F6817F4803F01D045EA92
:1012B8000406614C2660646802EA04064F6817F465
:1012C800003F01D045EA04065B4C6660A46802EA68
:1012D80004064F6817F4801F01D045EA0406564CEF
:1012E800A660E46822404E6816F4001F01D045EA63
:1012F8000402514CE26001330F2B00F29780012267
:101308009A400C6804EA0205AA42F4D14C68022CFF
:1013180001D0122C10D1DE08083650F826C003F090
:101328000704A7000F24BC402CEA040C0C69BC403D
:1013380044EA0C0440F8264004685F000326BE40D7
:10134800F64306EA040C4C6804F00304BC4044EA83
:101358000C0404604C6804F1FF3CBCF1010F03D994
:10136800112C01D0122C10D1846806EA040CCC6828
:10137800BC4044EA0C048460446824EA02024C68D5
:10138800C4F300149C4014434460C26816408A6841
:10139800BA403243C2604A6812F0805FABD0002284
:1013A8000192264A546C44F480445464526C02F40A
:1013B80080420192019A9C08A61C1E4A52F8267087
:1013C80003F0030296000F22B24027EA02071C4AE4
:1013D80090423FF45CAF02F5806290421AD002F569
:1013E8008062904218D002F58062904216D002F5D1
:1013F8008062904214D002F58062904212D002F5C9
:101408008062904210D002F5806290423FF43DAF76
:1014180008223DE701223BE7022239E7032237E7AA
:10142800042235E7052233E7062231E702B0F0BC93
:101438007047704700380140003C014000380240C6
:10144800000002400369194201D1002070470120C1
:10145800704712B9090481617047816170470000C3
:1014680008B5054B5B69034200D108BD024B5861C2
:1014780002F09CF9F9E700BF003C014003685A6993
:1014880012F4806F0DD06FF480625A6104230364F4
:1014980000230363202280F83D2080F83C3001209F
:1014A800704700207047F8B506460C4617461D469B
:1014B8001EE02DB1FFF75AFA069BC01AA84217D9A9
:1014C80000233363202286F83D2086F83E3086F8D4
:1014D8003C3003201AE033685B6924EA03039BB2BB
:1014E800B3FA83F35B099F420FD1B5F1FF3FE0D117
:1014F800C4F30743012BEED033689B6924EA030346
:101508009BB2B3FA83F35B09EDE70020F8BDF8B5A9
:1015180004460D4616461F4632E01A6842F4007229
:101528001A6023686FF480625A61042323640023DD
:101538002363202284F83D2084F83C3001202DE0EC
:1015480026B1FFF713FAC01BB04219D90023236351
:10155800202284F83D2084F83C3003201EE02368D4
:101568005B6925EA03039BB2003318BF0123A3B1CB
:1015780023685A6912F4806FCFD1B6F1FF3FDFD1EB
:10158800C5F30743012BEAD023689B6925EA0303C7
:101598009BB2003318BF0123E9E70020F8BD000023
:1015A800F0B583B004460D4616461F46C36A042BA1
:1015B8000DD0012B0BD013F5803F08D0036B122BF5
:1015C8000AD10268136843F48073136004E0226848
:1015D800136843F4807313600097334600224FF07A
:1015E80001112046FFF75FFF58BB2369B3F5804F11
:1015F80010D1236805F0FE051D613B4632461549AA
:101608002046FFF784FF0346E0B1236C042B1ED16C
:10161800012317E0EB11226803F0060343F0F003FF
:1016280013613B4632460C492046FFF770FF20B154
:10163800236C042B09D1012304E02368EDB21D615A
:10164800DBE70323184603B0F0BD0323FAE70323BF
:10165800F8E700BF02000100080001002DE9F04191
:1016680084B004460D4616461F46C26A01680B68D8
:1016780043F480630B60042A0DD0012A0BD012F5C5
:10168800803F08D0036B112B0AD10268136843F41A
:101698008073136004E02268136843F48073136056
:1016A8000097334600224FF001112046FFF7FBFE5A
:1016B800002852D12369B3F5804F12D1236845F031
:1016C8000105EDB21D613B4632462A492046FFF727
:1016D8001EFF0346002841D0236C042B48D1012368
:1016E8003CE04FEAE51808F00608236848F0F002E5
:1016F8001A613B46324620492046FFF708FF20B1D1
:10170800236C042B2ED1012328E02368EDB21D6140
:101718003B46324617492046FFF7F9FE20B1236CB5
:10172800042B21D1012319E000220392236859696F
:101738000391996903910399196841F480711960BB
:10174800009733464FF001112046FFF7ACFE68B909
:10175800226848F0F1031361B5E70323184604B083
:10176800BDE8F0810323F9E70323F7E70323F5E74F
:101778000323F3E7020001000800010070B50446E6
:101788000D46164623685B6913F0800F19D1204671
:10179800FFF774FEB8B9B5F1FF3FF3D025B1FFF7F5
:1017A800E5F8801BA842EDD9236C43F0200323649D
:1017B80000232363202284F83D2084F83C30032052
:1017C80000E0002070BD0120FCE770B504460D461E
:1017D800164623685B6913F0040F19D12046FFF7FA
:1017E8004DFEB8B9B5F1FF3FF3D025B1FFF7BEF80C
:1017F800801BA842EDD9236C43F020032364002307
:101808002363202284F83D2084F83C30032000E044
:10181800002070BD0120FCE770B505460C46164651
:101828002B685A6912F0400F22D15A6912F0100F32
:1018380011D124B1FFF79AF8801BA042F0D92B6C84
:1018480043F020032B64202385F83D30002385F8DE
:101858003C30032070BD6FF010025A6100232B64E6
:101868002B63202285F83D2085F83C300120F1E7E4
:101878000020EFE7002800F0828010B5044690F8B9
:101888003D30002B41D0242384F83D302268136872
:1018980023F00103136001F03FF93A4BA3FB002347
:1018A8009B0C226853606168374A914232D80133F1
:1018B800226813626368344A934235D85B00B0FBF0
:1018C800F3F0C0F30B03032B00D804202368D8617E
:1018D800E369216A22680B4313602369E16822687F
:1018E8000B4393606369A16922680B43D360226844
:1018F800136843F00103136000202064202384F858
:101908003D30206384F83E0010BD80F83C3002F082
:10191800B5FCB8E74FF4967202FB03F31B4AA2FB2F
:1019280003239B090133C3E7A16889B903EB430289
:10193800B0FBF2F2C2F30B02B2FA82F25209E2B938
:1019480091B903EB4303B0FBF3F040F40040BDE76B
:1019580003EB830202EB8202B0FBF2F2C2F30B024A
:10196800B2FA82F25209EAE703EB830303EB83033B
:10197800B0FBF3F040F44040A8E70120A6E70120BF
:10198800704700BF83DE1B43A0860100D34D621061
:101998002DE9F04184B004460E4690461F46FEF7F6
:1019A800E5FF94F83D30DBB2202B04D00226304608
:1019B80004B0BDE8F081054600901923012254497E
:1019C8002046FFF770FD002840F0998094F83C30DD
:1019D800012B00F09680012384F83C3023681A68B4
:1019E80012F0010F03D11A6842F001021A6022684E
:1019F800136823F400631360212384F83D30102317
:101A080084F83E3000232364C4F824806785A3F556
:101A18008033E362638D23852B460A9A314620463C
:101A2800FFF7BEFD064660B1236C042B04D10023EA
:101A380084F83C300126BAE7002384F83C300326BA
:101A4800B5E70023039323685A6903929B690393BC
:101A5800039B10E0236C042B55D12268136843F4D0
:101A6800007313600126A2E72A460A992046FFF769
:101A7800ACFE00282BD1238D002B32D02A460A99A0
:101A88002046FFF77BFE0028E4D1636A5A1C626295
:101A980022681B781361638D013B9BB26385238D9C
:101AA800013B9BB223852268516911F0040FDBD0FA
:101AB800002BD9D0636A591C61621B781361638D4E
:101AC800013B9BB26385238D013B2385CCE7236CC7
:101AD800042B1AD12268136843F40073136001269B
:101AE80065E72268136843F400731360202384F8C1
:101AF8003D30002384F83E3084F83C3057E7022616
:101B080055E7022653E7032651E703264FE700BFB0
:101B1800020010002DE9F04186B004460E469046BA
:101B28001F46FEF723FF94F83D30DBB2202B04D08C
:101B38000226304606B0BDE8F0810546009019231C
:101B480001228C492046FFF7AEFC002840F04B816B
:101B580094F83C30012B00F04881012384F83C3094
:101B680023681A6812F0010F03D11A6842F00102C3
:101B78001A602268136823F400631360222384F830
:101B88003D30102384F83E3000232364C4F82480B9
:101B98006785A3F58033E362638D23852B460C9A12
:101BA80031462046FFF75AFD064660B1236C042BE8
:101BB80004D1002384F83C300126BAE7002384F8D6
:101BC8003C300326B5E7238D5BB9029323685A6935
:101BD80002929A690292029A1A6842F400721A6092
:101BE8007AE0012B0FD0022B1FD02268136843F430
:101BF800806313600023059323685A6905929B69E3
:101C08000593059B68E02268136823F480631360DA
:101C18000023039323685A6903929A690392039AEB
:101C28001A6842F400721A6056E02268136823F4B6
:101C3800806313602268136843F400631360002311
:101C4800049323685A6904929B690493049B43E0B4
:101C58002A460C992046FFF7DFFD68B923681A6900
:101C6800636A591C61621A70238D013B2385638D59
:101C7800013B9BB263852FE0236C202B01D001260A
:101C880057E7032655E700950C9B00223A49204662
:101C9800FFF709FC002840F0AA802268136843F483
:101CA8000073136023681A69636A591C61621A70A9
:101CB800238D013B2385638D013B9BB2638523689C
:101CC8001A69636A591C61621A70238D013B238566
:101CD800638D013B9BB26385238D002B7AD0032B48
:101CE8004CD8012BB4D0022BCDD000950C9B0022F0
:101CF80021492046FFF7D7FB00287AD122681368CC
:101D080023F48063136023681A69636A591C61624B
:101D18001A70238D013B2385638D013B9BB263853C
:101D280000950C9B002214492046FFF7BCFB0028B5
:101D380061D12268136843F40073136023681A6939
:101D4800636A591C61621A70238D013B2385638D78
:101D5800013B9BB2638523681A69636A591C6162F7
:101D68001A70238D013B2385638D013B9BB26385EC
:101D7800B2E700BF02001000040001002A460C99D7
:101D88002046FFF749FDF0B923681A69636A591CB0
:101D980061621A70238D013B2385638D013B9BB2E1
:101DA800638523685A6912F0040F95D01A69636A2B
:101DB800591C61621A70238D013B2385638D013B99
:101DC8009BB2638588E7236C202B01D00126B0E6FF
:101DD8000326AEE6202384F83D30002384F83E3005
:101DE80084F83C30A5E60226A3E60226A1E60326EF
:101DF8009FE603269DE603269BE600BF00294CD0FC
:101E080010B50C46002A4AD090F84130DBB2012BBD
:101E180047D141620368DB6903F00703032B04D051
:101E2800052B02D00285428503E0520092B202855A
:101E3800428590F84030DBB2012B34D0214604466D
:101E4800012380F8403000234364032380F84130A5
:101E5800836B164A1A64836B154ADA63836B154AD7
:101E6800DA640268038D0C32806BFFF7DFF82368B1
:101E7800DA6912F4806F03D1DA6942F48062DA61B8
:101E880023685A6812F0020F03D15A6842F002021E
:101E98005A60002084F8400002E0012070470120C9
:101EA80010BD0220FCE70220FAE700BFC31E0008AD
:101EB800071F0008D9210008704708B5806BFFF795
:101EC800FBFF08BD704708B5436A9A1C4262026866
:101ED8001B88D360438D013B9BB24385438D9BB2E6
:101EE80003B108BD0268536823F0A0031B041B0C50
:101EF8005360012380F84130FFF7E4FFF1E708B5AC
:101F0800836B0268126812F4807F09D119684A68E5
:101F180022F002024A6000225A85012283F84120F9
:101F28001846FFF7CFFF08BD704708B50368DA68A1
:101F3800C36A991CC1621A80438E013B9BB24386D7
:101F4800438E9BB203B108BD0268536823F0600357
:101F58001B041B0C5360012380F84130FFF7E4FF9A
:101F6800F1E77047002800F0BB8070B504460225F1
:101F780080F841505B4B436302F0BAF92268D36999
:101F880023F47B6323F00F03D36123681D62236866
:101F9800DD696369022B5BD0E368002B3ED0202605
:101FA800A368202B00D87600012000F06FFE23697B
:101FB800B3F5007F34D0B0FBF6F000EB80004300AF
:101FC8006269B3FBF2F30533474AA2FB0323DB083C
:101FD80003F001029B1AC3F34F0311029A1EFD2A54
:101FE80038D822690A43216813430B626268A168E2
:101FF800E068238B03439BB20B439BB213439BB212
:1020080043F400631D432368DD61236A012B2AD052
:1020180000206064012384F8413070BD1026BFE7BA
:10202800E36853B1B600B0FBF6F000EB8000430064
:102038006269B3FBF2F30533C6E7F600B0FBF6F0CE
:1020480000EB800043006269B3FBF2F30533BBE7A2
:102058000021C3E7636C43F0100363642046FFF775
:1020680080FF0120D9E7214B63632268204B9A4205
:102078001ED04FF04022D36923F47B6323F00F0373
:10208800D36122681A4B9A4214D04FF0402302229F
:102098001A622268164B9A420FD04FF04022D0693C
:1020A8006168B1F5007F0AD0C1B94FF4807608E0C5
:1020B800104AE0E7A3F58063E9E70E4AEFE74FF43B
:1020C8008076A168E568238B2B439BB20B439BB2B8
:1020D800334343F400630343D36199E70026F0E7F1
:1020E8000120704701210008CDCCCCCC4523000845
:1020F800003800400034004010B584B0044602683F
:102108009368039390F84130DBB2042B06D094F81F
:102118004130DBB2032B2ED004B010BD039B13F06B
:10212800010F03D0536813F0400F21D1039B13F024
:10213800400FECD023685A6812F0200FE7D05A6895
:1021480022F060021204120C5A60002301932368E3
:10215800DA6801929B680193019B012384F841305E
:10216800636C43F0020363642046FFF7FAFECEE790
:10217800FFF7DBFEDAE7039B13F0020F04D02368B6
:102188005B6813F0800F1FD1039B13F0080FC3D0B7
:1021980023685A6812F0200FBED05A6822F0A002B5
:1021A8001204120C5A600023029323689B6802935E
:1021B800029B012384F84130636C43F00403636499
:1021C8002046FFF7CEFEA7E72046FFF77CFEDBE7B9
:1021D80008B5806B0268536823F00303536000233B
:1021E80043854386012380F84130436C43F008035C
:1021F8004364FFF7B6FE08BD7047000008B5E9B9AB
:10220800436A9A1C426202681B88D360438D013B73
:102218009BB24385438D9BB24BB90268536823F048
:10222800A0031B041B0C5360438E9BB203B108BD73
:10223800012380F84130FFF7DFFFF8E7436A9A1C73
:1022480042621A880168134B99421ED04FF040230E
:10225800DA60438D013B9BB24385438D9BB2002BD3
:10226800E5D102680B4B9A4212D04FF040225368D6
:1022780023F0A0035360438E9BB2002BD7D10123D8
:1022880080F84130FFF7B8FFD1E7A3F58063DFE7B7
:10229800014AECE7003800400034004008B5E9B9CD
:1022A8000368DA68C36A991CC1621A80438E013BCD
:1022B8009BB24386438E9BB24BB90268536823F0A6
:1022C80060031B041B0C5360438D9BB203B108BD14
:1022D800012380F84130FFF78FFFF8E70268154BBC
:1022E8009A4222D04FF04023DA68C36A991CC1622F
:1022F8001A80438E013B9BB24386438E9BB2002BD0
:10230800E5D102680B4B9A4212D04FF04022536835
:1023180023F060035360438D9BB2002BD7D1012378
:1023280080F84130FFF768FFD1E7A3F58063DBE76A
:10233800014AECE7003800400034004010B584B092
:10234800044603689A6803927C4A93425DD04FF032
:1023580040218A680292DA6902F44072B2F5007F7D
:1023680004D0DA6912F4407F40F08180039A12F0B9
:10237800020F03D05B6813F0800F48D1029B13F063
:10238800010F09D022686D4B9A4245D04FF0402387
:102398005B6813F0400F42D1029B13F0400F09D045
:1023A8002268664B9A423FD04FF040235A6812F099
:1023B800200F3CD1039B13F0080F24D023685A68E0
:1023C80012F0200F1FD05A6822F0A0021204120C3B
:1023D8005A602268594B9A4247D04FF040225368BE
:1023E80023F0600353600023019323689B680193E3
:1023F800019B012384F84130636C43F00403636458
:102408002046FFF7AEFD04B010BD4D49A1E70021FD
:102418002046FFF7F3FEB1E7A3F58063B8E7012193
:102428002046FFF73BFFB7E7A3F58063BEE75A688E
:1024380022F060025A602268536823F0A0031B044C
:102448001B0C5360002300932368DA6800929B6892
:102458000093009B012384F84130636C43F002032E
:1024680063642046FFF77DFDA4E7354AB7E7029B82
:1024780013F0020F03D04B6813F0800F4FD1039B6A
:1024880013F0010F04D023685B6813F0400F4BD1A1
:10249800039B13F0400F1ED023685A6812F0200FD8
:1024A80019D05A6822F060021204120C5A6022688D
:1024B800224B9A423DD04FF04022536823F0A003AC
:1024C8005360012384F84130636C43F00203636472
:1024D8002046FFF746FD029B13F0080F93D02268B1
:1024E800164B9A4227D04FF040235A6812F0200F1B
:1024F80089D05A6822F0A0025A602268536823F0F3
:1025080060031B041B0C5360012384F84130636C87
:1025180043F0040363642046FFF723FD73E70121BA
:102528002046FFF76BFEAAE700212046FFF7B6FE1C
:10253800AEE7034AC1E7A3F58063D6E70038004059
:1025480000340040002800F0BB8170B582B004461A
:10255800036813F0010F3BD0A74B9B6803F00C03F3
:10256800042B2CD0A44B9B6803F00C03082B21D020
:102578006368B3F5803F4FD0B3F5A02F52D09E4B80
:102588001A6822F480321A601A6822F480221A60CB
:102598006368002B50D0FEF7E9F90546964B1B6897
:1025A80013F4003F14D1FEF7E1F9401B6428F5D974
:1025B80003208AE1904B5B6813F4800FD8D08E4BD0
:1025C8001B6813F4003F03D06368002B00F07A8186
:1025D800236813F0020F55D0874B9B6813F00C0F3C
:1025E8003ED0854B9B6803F00C03082B33D0E3687F
:1025F800002B68D0814B01221A60FEF7B7F9054617
:102608007D4B1B6813F0020F54D1FEF7AFF9401B46
:102618000228F5D9032058E1774A136843F4803338
:102628001360B5E7744B1A6842F480221A601A687E
:1026380042F480321A60ABE7FEF798F905466E4B14
:102648001B6813F4003FC3D0FEF790F9401B6428C1
:10265800F5D9032039E1684B5B6813F4800FC6D1C4
:10266800654B1B6813F0020F04D0E368012B01D0FF
:1026780001202AE1604A136823F0F803216943EA3C
:10268800C1031360236813F0080F40D0636963B374
:102698005B4B01221A60FEF769F90546564B5B6FE2
:1026A80013F0020F33D1FEF761F9401B0228F5D968
:1026B80003200AE1504A136823F0F803216943EA2A
:1026C800C1031360DEE74D4B00221A60FEF74EF996
:1026D8000546494B1B6813F0020FD3D0FEF746F9A5
:1026E800401B0228F5D90320EFE0454B00221A6071
:1026F800FEF73CF90546404B5B6F13F0020F06D01E
:10270800FEF734F9401B0228F5D90320DDE02368E1
:1027180013F0040F79D0384B1B6C13F0805F33D162
:1027280000230193344B1A6C42F080521A641B6CDC
:1027380003F080530193019B0125324B1B6813F46E
:10274800807F23D0A368012B34D0052B38D02A4BA7
:102758001A6F22F001021A671A6F22F004021A6730
:10276800A368002B36D0FEF701F90646224B1B6FF3
:1027780013F0020F48D1FEF7F9F8801B41F28833B5
:102788009842F3D90320A0E00025D6E71D4A136834
:1027980043F480731360FEF7E9F80646194B1B688B
:1027A80013F4807FCED1FEF7E1F8801B0228F5D91B
:1027B80003208AE0104A136F43F001031367CFE741
:1027C8000D4B1A6F42F004021A671A6F42F00102A9
:1027D8001A67C5E7FEF7CAF80646074B1B6F13F0E2
:1027E800020F11D0FEF7C2F8801B41F288339842DD
:1027F800F3D9032069E000BF0038024000004742D7
:10280800800E474200700040E5B9A369002B5BD0F9
:10281800304A926802F00C02082A58D0022B17D0CE
:102828002D4B00221A60FEF7A1F80446294B1B68BD
:1028380013F0007F42D0FEF799F8001B0228F5D963
:10284800032042E0234A136C23F080531364DCE72F
:10285800214B00221A60FEF789F805461D4B1B68BC
:1028680013F0007F06D0FEF781F8401B0228F5D947
:1028780003202AE0E369226A1343626A43EA821367
:10288800A26A5208013A43EA0243E26A43EA02634F
:10289800104A5360104B01221A60FEF767F804468D
:1028A8000C4B1B6813F0007F06D1FEF75FF8001B86
:1028B8000228F5D9032008E0002006E0002004E003
:1028C80001207047012000E0002002B070BD012007
:1028D800FBE700BF0038024060004742324B9B686C
:1028E80003F00C03042B5CD0082B01D02F48704751
:1028F8002DE9F04B2C4B5A6802F03F025B6813F449
:10290800800F2BD0284B5B68C3F388131E46002723
:102918005C010025E41A65EB0705A90141EA946109
:10292800A001001B61EB0501CB0043EA5073C40012
:10293800A01943EB07014B0243EAD0534402204657
:1029480019460023FDF748FE174B5B68C3F30143A4
:1029580001335B00B0FBF3F0BDE8F08B124B5B6812
:10296800C3F388131E4600275C010025E41A65EBB3
:102978000705A90141EA9461A001001B61EB05016B
:10298800CB0043EA5073C400A01943EB07018B0244
:1029980043EA90538402204619460023FDF71CFEA3
:1029A800D2E70348704700BF003802400024F40013
:1029B80000127A00002800F09D8070B504464F4B45
:1029C8001B6803F00F038B4209D2CBB24B4A13703A
:1029D800136803F00F038B4201D0012070BD2368F8
:1029E80013F0020F17D013F0040F04D0444A936871
:1029F80043F4E0539360236813F0080F04D0404A6F
:102A0800936843F4604393603D4A936823F0F0036E
:102A1800A068034393600D46236813F0010F32D07A
:102A28006368012B21D09A1E012A25D9344A1268DD
:102A380012F0020F60D032498A6822F00302134371
:102A48008B60FDF793FF06462D4B9B6803F00C0344
:102A58006268B3EB820F16D0FDF788FF801B41F246
:102A680088339842F0D90320B8E7254A126812F44F
:102A7800003FE0D10120B1E7214A126812F0007F3F
:102A8800D9D10120AAE71D4B1B6803F00F03AB4205
:102A980009D9EAB2194B1A701B6803F00F03AB424D
:102AA80001D001209AE7236813F0040F06D0144AD6
:102AB800936823F4E053E1680B439360236813F0B1
:102AC800080F07D00E4A936823F46043216943EA4C
:102AD800C1039360FFF702FF094B9B68C3F303131D
:102AE800084AD35CD840084B18600020FDF7F4FE74
:102AF800002073E70120704701206FE7003C024087
:102B080000380240EC60000810000020014B1868F3
:102B1800704700BF1000002008B5FFF7F7FF044B0F
:102B28009B68C3F38223034AD35CD84008BD00BF27
:102B380000380240FC60000830B583B004460368E2
:102B480013F0050F06D1236813F0020F2ED10020D1
:102B580003B030BD494B00221A60FDF707FF054658
:102B6800474B1B6813F0006F06D0FDF7FFFE401BB4
:102B78000228F5D90320EBE76268A3681B0743EA3C
:102B880082133F4AC2F884303C4B01221A60FDF799
:102B9800EDFE05463A4B1B6813F0006FD3D1FDF7E5
:102BA800E5FE401B0228F5D90320D1E70023019355
:102BB800334B1A6C42F080521A641B6C03F080533A
:102BC8000193019B2F4A136843F480731360FDF748
:102BD800CDFE05462B4B1B6813F4807F06D1FDF70D
:102BE800C5FE401B0228F5D90320B1E7244B1B6F13
:102BF80013F4407312D0E26802F440729A420DD086
:102C08001F4B1A6F22F440721F49012008600020F0
:102C180008601A671B6F13F0010F13D1E36803F400
:102C28004072B2F5407F1ED0154A936823F4F8131A
:102C3800936013490B6FE268C2F30B0213430B67EF
:102C4800002085E7FDF792FE05460D4B1B6F13F03C
:102C5800020FE3D1FDF78AFE401B41F28833984208
:102C6800F3D9032074E706498A6822F4F81223F09E
:102C7800704323F4407313438B60DAE768004742DC
:102C88000038024000700040400E474201282AD117
:102C9800174B9B6813F4000303D0012B25D115486B
:102CA8007047134B5B6813F4800F14D0104B5B68AC
:102CB80003F03F031048B0FBF3F00D4AD2F884301C
:102CC800C3F3881300FB03F0D2F88430C3F3027314
:102CD800B0FBF3F07047064B5B6803F03F0307480F
:102CE800B0FBF3F0E9E7002070470020704700BF11
:102CF800003802400080BB0000127A000024F40073
:102D080010B4036A046A24F001040462846924F09C
:102D1800F00444EA021223F00A030B4382610362BF
:102D28005DF8044B704710B4036A23F01003036284
:102D38008469036A24F4704444EA023223F0A0034D
:102D480043EA0113826103625DF8044B70478368AC
:102D580023F0700341F0070119438160704710B4F4
:102D6800846824F47F4442EA03230B4323438360AB
:102D78005DF8044B70470268D36843F00103D360E1
:102D88000268136843F0010313600020704790F84D
:102D98003830012B7DD010B50446012380F8383037
:102DA800022380F839300268936823F47F4323F0C4
:102DB800770393600B68402B57D010D9702B3ED007
:102DC8001FD8502B47D0602B32D1CA684968006899
:102DD800FFF7A9FF60212068FFF7B9FF28E0102B53
:102DE8004DD008D9202B4FD0302B21D1302100686D
:102DF800FFF7ADFF1CE0DBB900210068FFF7A7FF74
:102E080016E0B3F5805F0ED0B3F5005F10D1CB6844
:102E18004A6889680068FFF7A2FF2268936843F44C
:102E28008043936004E00268936823F0070393608B
:102E3800012384F83930002084F8380010BDCB68AD
:102E48004A6889680068FFF78AFF2268936843F038
:102E580077039360ECE7CA6849680068FFF750FF9A
:102E680050212068FFF773FFE2E7CA6849680068E5
:102E7800FFF746FF40212068FFF769FFD8E71021D8
:102E88000068FFF764FFD3E720210068FFF75FFFC2
:102E9800CEE702207047704770477047704710B5FB
:102EA800044603681A6912F0020F11D0DA6812F0AA
:102EB800020F0DD06FF002021A6101230376036836
:102EC8009B6913F0030F70D0FFF7E6FF002323760A
:102ED80023681A6912F0040F12D0DA6812F0040F8E
:102EE8000ED06FF004021A610223237623689B69CF
:102EF80013F4407F5FD02046FFF7CEFF00232376F0
:102F080023681A6912F0080F12D0DA6812F0080F55
:102F18000ED06FF008021A61042323762368DB6958
:102F280013F0030F4ED02046FFF7B6FF0023237699
:102F380023681A6912F0100F12D0DA6812F0100F15
:102F48000ED06FF010021A61082323762368DB691C
:102F580013F4407F3DD02046FFF79EFF00232376E1
:102F680023681A6912F0010F03D0DA6812F0010F12
:102F780036D123681A6912F0800F03D0DA6812F08C
:102F8800800F34D123681A6912F0400F03D0DA6831
:102F980012F0400F32D123681A6912F0200F03D0C3
:102FA800DA6812F0200F30D110BDFFF774FF204609
:102FB800FFF773FF8AE72046FFF76DFF2046FFF70C
:102FC8006CFF9BE72046FFF766FF2046FFF765FF8B
:102FD800ACE72046FFF75FFF2046FFF75EFFBDE73F
:102FE8006FF001021A61204600F092FCC1E76FF011
:102FF80080021A61204600F0B2F8C3E76FF0400281
:103008001A612046FFF74AFFC5E76FF020021A61F0
:10301800204600F0A3F8C7E703682E4A904212D072
:10302800B0F1804F0FD0A2F57C4290420BD002F550
:103038008062904207D002F58062904203D002F588
:103048007842904203D123F070034A681343214A1F
:1030580090422AD0B0F1804F27D0A2F57C4290420E
:1030680023D002F5806290421FD002F58062904220
:103078001BD002F57842904217D002F57052904268
:1030880013D002F5806290420FD002F58062904220
:103098000BD0A2F59832904207D002F58062904298
:1030A80003D002F58062904203D123F44073CA68CA
:1030B800134303608B68C3620B688362054B9842B5
:1030C80003D003F58063984201D10B6903630123A0
:1030D8004361704700000140A8B110B5044690F85C
:1030E80039305BB1022384F83930211D2068FFF79D
:1030F80093FF012384F83930002010BD80F8383060
:1031080001F066F9EEE70120704790F83830012B9E
:1031180022D030B4012280F83820022380F83930D8
:103128000468636823F070036360046863680D686B
:103138002B4363600468A36823F08003A3600468DA
:10314800A36849680B43A36080F83920002380F8FE
:103158003830184630BC70470220704770477047B7
:1031680010B582B0064C20700B786370642300930E
:10317800022322469421201DFEF70AFC02B010BD4E
:103188009800002070B582B00E460A4A144604F82A
:10319800040B64250095012394212046FEF7F8FBD3
:1031A80000950123324694212046FEF7B3FC02B075
:1031B80070BD00BF9800002084B070B504AC84E8EE
:1031C8000F009DF86460444B002283F840201A6881
:1031D800D36943F48063D361012210213F48FEF78D
:1031E80038F93F4C542204A9201D02F0A1FE012306
:1031F800637021460220FFF7B3FF2546AF2305F889
:10320800013F29460420FFF7ABFF8023637029465E
:103218000520FFF7A5FF21460620FFF7B3FF6378D7
:1032280003F0200343F00703637029460620FFF7E5
:1032380097FF29460820FFF7A5FF637803F0F003FE
:1032480043F00103637029460820FFF789FF2946E8
:103258000920FFF797FF637803F0F00343F00103B9
:10326800637029460920FFF77BFF29460E20FFF7E8
:1032780089FF012E28D016B9194B02225A70184D11
:103288006C1C21460E20FFF76BFF21460F20FFF72D
:1032980079FF00266E7021460F20FFF761FF6E70E0
:1032A80021461420FFF75CFF21461520FFF758FF41
:1032B80021461A20FFF754FF21461B20FFF750FF35
:1032C800BDE8704004B07047637843F0C00303F072
:1032D800C7036370D3E700BFAC020020000C0240B4
:1032E8009800002008B5032806D8DFE800F0020F90
:1032F80013170C4BF0225A700A494B7843F00F030E
:1033080001F8013F0420FFF72BFF08BD054BB02251
:103318005A70F1E7034BE0225A70EDE7014BA02207
:103328005A70E9E79800002038B50446A0F1320346
:10333800DBB25B00114D05F8013F29461420FFF769
:103348000FFF29461520FFF70BFF642C14D804EB58
:10335800440423010A4A82FB03235B09183BDBB2BE
:10336800064C04F8013F21462020FFF7F9FE2146CC
:103378002120FFF7F5FE38BD1823F1E7980000205B
:103388001F85EB5138B5194D2C46992304F8013F98
:1033980021460020FFF7E4FE80236B70214647207A
:1033A800FFF7DEFE21463220FFF7ECFE6B7863F074
:1033B8007F036B7021463220FFF7D2FE2146322070
:1033C800FFF7E0FE6B7803F07F036B702146322035
:1033D800FFF7C6FE002068702146FFF7C1FE9E2356
:1033E8006B7021460220FFF7BBFE38BD9800002015
:1033F8002DE9F0418AB000240594069407940894B6
:10340800099400944C4B1A6B42F080021A631A6BB1
:1034180002F080020092009A01941A6B42F00402B2
:103428001A631A6B02F004020192019A02941A6B51
:1034380042F001021A631A6B02F001020292029A28
:1034480003941A6B42F008021A631A6B02F008021E
:103458000392039A04941A6B42F002021A631B6BDC
:1034680003F002030493049B344D2246102128469E
:10347800FDF7EFFFAF230593314F06970226079616
:1034880005A93048FDF7FAFE4FF01008CDF8148072
:103498000697079605A92C48FDF7F0FE4FF4F85358
:1034A80005930697079605A92846FDF7E7FECDF888
:1034B8001480012306930794089405A92846FDF76C
:1034C800DDFE224621460620FDF7F2FB0620FDF729
:1034D80023FC224621460720FDF7EAFB0720FDF7DB
:1034E8001BFC224621460820FDF7E2FB0820FDF7D9
:1034F80013FC224621460920FDF7DAFB0920FDF7D7
:103508000BFC224621460A20FDF7D2FB0A20FDF7D4
:1035180003FC224621461720FDF7CAFB1720FDF7BA
:10352800FBFB224621462820FDF7C2FB2820FDF799
:10353800F3FB0AB0BDE8F08100380240000C0240FD
:1035480000003110000002400008024000B583B0BE
:1035580000210191094B1A6B42F400121A631B6B8C
:1035680003F400130193019B0A461020FDF7A0FB0A
:103578001020FDF7D1FB03B05DF804FB00380240D2
:1035880008B50948094B0360094B43600023836071
:10359800C3604FF48042026143618361C361036287
:1035A800FEF768F908BD00BF08010020005400407C
:1035B800A086010070B584B000250095019502959C
:1035C80003950F4C0F4B23604FF480336360A56065
:1035D8002561A5612562E5620B4BA362E5600126C2
:1035E800E661256366612046FDF75EFA0A230093CB
:1035F8000196029569462046FDF780FA04B070BD31
:1036080004020020002001400100000F08B509480D
:10361800094B03604FF40072426000238360C3606B
:1036280002614BF6803242618361C3610362FEF737
:1036380099FC08BDAC020020003C004030B587B0C2
:1036480000240294039404940594009401940E4D6C
:103658004FF080432B6022236B60AC603123EB601A
:103668002C612846FFF738FD4FF48053029302A9D6
:103678002846FFF78CFB0094019469462846FFF71B
:1036880044FD07B030BD00BF7002002030B587B0E0
:1036980000240294039404940594009401940E4D1C
:1036A8000E4B2B6041F287336B60AC60A723EB6055
:1036B8002C612846FFF710FD4FF48053029302A9AE
:1036C8002846FFF764FB0094019469462846FFF7F3
:1036D8001CFD07B030BD00BF6001002000040040A1
:1036E80030B583B0002400940194074D074B2B603C
:1036F8002846FDF733FB0094019422466946284684
:10370800FDF775FB03B030BD4C020020007400408B
:1037180038B5234D01212846FDF794FE214C207031
:1037280002212846FDF78EFE607004212846FDF729
:1037380089FEA07008212846FDF784FEE07020214C
:103748002846FDF77FFE207180212846FDF77AFE86
:10375800607110211448FDF775FEA07105F54065EC
:103768004FF480712846FDF76DFEE0714FF400714B
:103778002846FDF767FE20724FF480612846FDF762
:1037880061FE60724FF400612846FDF75BFEA0728F
:103798004FF480512846FDF755FEE07238BD00BF52
:1037A80000000240600200200008024008B5FFF750
:1037B800AFFF08BD0023184600E001330B2B05DCE2
:1037C800034AD25C002AF8D00130F6E7704700BF00
:1037D8006002002070B598B0302200210DEB020085
:1037E80002F0B1FB00240794089409940A940B94FE
:1037F800039404940594069401941F4B1A6C42F0A8
:1038080080521A641B6C03F080530193019B02944D
:103818001A4B1A6842F480421A601B6803F480430A
:103828000293029B01260C964FF480330D930225D8
:1038380012954FF48003139304231493A82215922E
:10384800169517930CA8FEF77DFE0F23079308958E
:1038580009944FF4A0530A934FF480530B93052116
:1038680007A8FFF7A7F8039632230493059503A842
:10387800FFF762F918B070BD0038024000700040D0
:1038880000B593B0FDF74CF8FFF7A4FFFFF7B0FDC4
:10389800FFF75CFEFFF774FEFFF78CFEFFF7B6FE3E
:1038A800FFF7CCFEFFF71CFFFFF7F0FE124C0123D9
:1038B8001193442204F11001684602F039FB94E8A0
:1038C8000F00FFF779FC3220FFF72EFD0320FFF7EA
:1038D80009FDFFF757FD00210848FDF751FA084890
:1038E800FFF749FA0748FFF746FA0422064907484E
:1038F800FEF784FAFEE700BF080100204C02002012
:103908007002002060010020FC010020AC020020B1
:1039180010B504460368B3F1804F05D02268B84B50
:103928009A4200F0698110BDFFF744FF00283CD09F
:10393800B44B1B78002B3FD1B24B5B78002B53D193
:10394800B04B9B78002B67D1AE4BDB78002B7BD13B
:10395800AC4B1B79002B40F08F80AA4B5B79002B76
:1039680040F0A280A74B9B79002B40F0B580A54B77
:10397800DB79002B40F0C880A24B1B7A002B40F06B
:10398800DB80A04B5B7A002B40F0EE809D4B9B7A4E
:10399800002B40F001819B4BDB7A002B40F0148117
:1039A800994A136801331360B8E7002308221946BF
:1039B8009648FDF741FABBE7934B1968012000F0E0
:1039C800E1F9F7EE007A70EE277A9FED910A67EE3B
:1039D800807AFCEEE77A17EE903A9BB20822002133
:1039E8008A48FDF729FAA7E7874B1968022000F0F3
:1039F800C9F9F7EE007A70EE277A9FED850A67EE2F
:103A0800807AFCEEE77A17EE903A9BB20822002102
:103A18007E48FDF711FA93E77B4B1968032000F005
:103A2800B1F9F7EE007A70EE277A9FED790A67EE22
:103A3800807AFCEEE77A17EE903A9BB208220021D2
:103A48007248FDF7F9F97FE76F4B1968042000F019
:103A580099F9F7EE007A70EE277A9FED6D0A67EE16
:103A6800807AFCEEE77A17EE903A9BB208220021A2
:103A78006648FDF7E1F96BE7634B1968052000F02C
:103A880081F9F7EE007A70EE277A9FED610A67EE0A
:103A9800807AFCEEE77A17EE903A9BB20822002172
:103AA8005A48FDF7C9F958E7574B1968062000F03E
:103AB80069F9F7EE007A70EE277A9FED550A67EEFE
:103AC800807AFCEEE77A17EE903A9BB20822002142
:103AD8004E48FDF7B1F945E74B4B1968072000F050
:103AE80051F9F7EE007A70EE277A9FED490A67EEF2
:103AF800807AFCEEE77A17EE903A9BB20822002112
:103B08004248FDF799F932E73F4B1968082000F061
:103B180039F9F7EE007A70EE277A9FED3D0A67EEE5
:103B2800807AFCEEE77A17EE903A9BB208220021E1
:103B38003648FDF781F91FE7334B1968092000F073
:103B480021F9F7EE007A70EE277A9FED310A67EED9
:103B5800807AFCEEE77A17EE903A9BB208220021B1
:103B68002A48FDF769F90CE7274B19680A2000F085
:103B780009F9F7EE007A70EE277A9FED250A67EECD
:103B8800807AFCEEE77A17EE903A9BB20822002181
:103B98001E48FDF751F9F9E61B4B19680B2000F098
:103BA800F1F8F7EE007A70EE277A9FED190A67EEC2
:103BB800807AFCEEE77A17EE903A9BB20822002151
:103BC8001248FDF739F9E6E60F4B19680C2000F0AA
:103BD800D9F8F7EE007A70EE277A9FED0D0A67EEB6
:103BE800807AFCEEE77A17EE903A9BB20822002121
:103BF8000648FDF721F9D3E6FFF78AFD93E600BFF3
:103C080000040040600200206C0200204C020020EA
:103C18000000FE4270470000DFED047A20EE270A1C
:103C2800DFED037A80EE270A704700BFD00FC94046
:103C380000803B4708B52DED028B08EE100AFFF710
:103C4800EBFFB8EEC88A28EE000A00F0A7FCBDEC2E
:103C5800028B08BD08B52DED028B08EE100AFFF7A0
:103C6800DBFFB8EEC88A28EE000A00F097FCB5EE34
:103C7800C00AF1EE10FA04DBB7EE000ABDEC028BC5
:103C880008BDBFEE000AF9E708B52DED028B08EE76
:103C9800100AFFF7C1FFB8EEC88A28EE000A00F044
:103CA8007DFC00F0C5FCDFED037A20EE270ABDECB1
:103CB800028B08BD8CF9223F08B52DED048B09EE67
:103CC800900AFFF7A9FFB0EE409AB7EE008ADFED41
:103CD800108A0FE068EE097AB8EEE90A20EE270AA2
:103CE80000F05CFC80EE080A78EE808AF7EE007A35
:103CF80038EE278AF3EE0E7AB4EEE78AF1EE10FA80
:103D0800E8D49FED040A20EE680ABDEC048B08BDD8
:103D1800000000008CF9223F08B502F01DF907EEFB
:103D2800900AB8EEE70ADFED057A20EE270A30EEB2
:103D3800000AF7EE007A30EE670A08BD000000308E
:103D480008B5052913D8DFE801F00306090C120F9E
:103D5800FFF770FF08BDFFF77DFFFBE7FFF794FF54
:103D6800F8E7FFF7A9FFF5E7FFF7D6FFF2E79FEDC2
:103D7800010AEFE70000000008B50321FFF7E0FFA4
:103D880008BD000038B52DED028B0C460C2800F25A
:103D9800E681DFE810F00D001D00430069008F0088
:103DA800B500DB00010127014D0173019201BD013E
:103DB800D348A0FB0130800A4BF6803303FB101078
:103DC80080B2B7EE000AFFF7D7FFBDEC028B38BD13
:103DD800CC4D2B7800EE903AF8EE600AB0EE000A6F
:103DE80000F080FC9FEDC88A20EE088AF0EE080AF1
:103DF80095ED010A00F076FC28EE000A9FEDC37AE3
:103E0800C7EE007AFCEEE77A17EE900AB4FBF0F3FF
:103E180000FB134080B2FFF7AFFFD6E7B94D2B7810
:103E280000EE903AF8EE600AB0EE000A00F05AFC94
:103E38009FEDB58A20EE088AF1EE000A95ED010A99
:103E480000F050FC28EE000A9FEDB07AC7EE007A29
:103E5800FCEEE77A17EE900AB4FBF0F300FB134090
:103E680080B2FFF789FFB0E7A64D2B7800EE903AB5
:103E7800F8EE600AB0EE000A00F034FC9FEDA28A6A
:103E880020EE088AF1EE040A95ED010A00F02AFCFA
:103E980028EE000A9FED9D7AC7EE007AFCEEE77ADD
:103EA80017EE900AB4FBF0F300FB134080B2FFF763
:103EB80063FF8AE7934D2B7800EE903AF8EE600A9C
:103EC800B0EE000A00F00EFC9FED8F8A20EE088A03
:103ED800F1EE080A95ED010A00F004FC28EE000A4C
:103EE8009FED8A7AC7EE007AFCEEE77A17EE900A21
:103EF800B4FBF0F300FB134080B2FFF73DFF64E72B
:103F0800804D2B7800EE903AF8EE600AB0EE000A89
:103F180000F0E8FB9FED7C8A20EE088AF1EE0C0A9F
:103F280095ED010A00F0DEFB28EE000A9FED777A96
:103F3800C7EE007AFCEEE77A17EE900AB4FBF0F3CE
:103F480000FB134080B2FFF717FF3EE76D4D2B785B
:103F580000EE903AF8EE600AB0EE000A00F0C2FBFC
:103F68009FED698A20EE088AF2EE000A95ED010AB3
:103F780000F0B8FB28EE000A9FED647AC7EE007ADD
:103F8800FCEEE77A17EE900AB4FBF0F300FB13405F
:103F980080B2FFF7F1FE18E75A4D2B7800EE903A01
:103FA800F8EE600AB0EE000A00F09CFB9FED568A1E
:103FB80020EE088AF2EE020A95ED010A00F092FB63
:103FC80028EE000A9FED517AC7EE007AFCEEE77AF8
:103FD80017EE900AB4FBF0F300FB134080B2FFF732
:103FE800CBFEF2E6474D2B7800EE903AF8EE600AE9
:103FF800B0EE000A00F076FB9FED438A20EE088AB7
:10400800F2EE040A95ED010A00F06CFB28EE000AB6
:104018009FED3E7AC7EE007AFCEEE77A17EE900A3B
:10402800B4FBF0F300FB134080B2FFF7A5FECCE62B
:10403800344D2B7800EE903AF8EE600AB0EE000AA4
:1040480000F050FB9FED308A20EE088AF2EE060A57
:1040580095ED010A00F046FB28EE000A9FED2B7A49
:10406800C7EE007AFCEEE77A17EE900AB4FBF0F39D
:1040780000FB134080B2FFF77FFEA6E6214B1B78BA
:10408800013300EE903AF8EEE00AB0EE000A00F0D4
:1040980029FBDFED1D7A20EE270A9FED1C7AC7EE7B
:1040A800007AFCEEE77A17EE900AB4FBF0F300FB17
:1040B800134080B2FFF760FE87E6124D2B7801337C
:1040C80000EE903AF8EEE00AB0EE000A00F00AFBC3
:1040D800DFED0D7A20EE270AD5ED017A20EE270ACA
:1040E8009FED0A7AC7EE007AFCEEE77A17EE900A9F
:1040F800B4FBF0F300FB134080B2FFF73DFE64E62B
:10410800F1197605080000200000DC4100803B47DB
:10411800144D2B78013300EE903AF8EEE00AB0EE39
:10412800000A00F0DFFA9FED108A20EE088AF0EE10
:10413800000A95ED010A00F0D5FA28EE000A9FED75
:104148000B7AC7EE007AFCEEE77A17EE900AB4FB1A
:10415800F0F300FB134080B2FFF70EFE35E69FED4B
:10416800040A32E6080000200000DC4100803B47DA
:104178000000000082B0002100910B4B5A6C42F401
:1041880080425A645A6C02F480420092009A01916B
:104198001A6C42F080521A641B6C03F0805301932E
:1041A800019B02B0704700BF0038024000B589B0DB
:1041B800002303930493059306930793026803F17E
:1041C800804303F590339A4202D009B05DF804FBAE
:1041D8000021019103F58C335A6C42F480725A64C1
:1041E8005A6C02F480720192019A02911A6B42F0A1
:1041F80004021A631B6B03F004030293029B01235E
:1042080003930323049303A90148FDF737F8DCE778
:104218000008024000B589B0002303930493059376
:10422800069307930268134B9A4202D009B05DF8CF
:1042380004FB0021019103F5E2331A6C42F00052AD
:104248001A641A6C02F000520192019A02911A6BD8
:1042580042F001021A631B6B03F001030293029BF5
:10426800102303930323049303A90348FDF706F8D7
:10427800DCE700BF007400400000024030B589B0A0
:104288000023039304930593069307930268154B41
:104298009A4201D009B030BD00250195124C236B1C
:1042A80043F002032363236B03F002030193019B92
:1042B8004FF41073039312230493012305930323EC
:1042C80006930423079303A90848FCF7D7FF029530
:1042D800236C43F400132364236C03F40013029348
:1042E800029BD7E700540040003802400004024017
:1042F800F0B589B0002303930493059306930793BD
:1043080002682E4B9A4201D009B0F0BD0446002540
:10431800009503F5FE331A6C42F400421A641A6CD5
:1043280002F400420092009A01951A6B42F00402CE
:104338001A631A6B02F004020192019A02951A6B31
:1043480042F001021A631B6B03F001030293029B04
:104358004FF4A4530393022704970626079603A94C
:104368001748FCF78BFF4FF4004303930497059518
:104378000695079603A91348FCF780FF1248134BCC
:104388000360456040238360C5604FF48063036128
:104398004FF4006343614FF4005383614FF480731B
:1043A800C36105624562FCF7DBFD18B9064BA363E0
:1043B8009C63A9E7FFF72EFCF8E700BF003C00402C
:1043C80000080240000002409C0100208860024072
:1043D80000B583B00368B3F1804F05D0174A934204
:1043E80017D003B05DF804FB0021009103F50E33EC
:1043F8001A6C42F001021A641B6C03F0010300936B
:10440800009B0A461C20FCF753FC1C20FCF784FC8C
:10441800E7E7002101910A4B1A6C42F002021A6484
:104428001B6C03F002030193019B0A461D20FCF755
:104438003FFC1D20FCF770FCD3E700BF00040040E0
:10444800003802407047FEE7FEE7FEE7FEE77047E8
:104458007047704708B5FCF77DFA08BD08B501201C
:10446800FCF7FEFF08BD08B50220FCF7F9FF08BD00
:1044780008B50420FCF7F4FF08BD08B50820FCF7D0
:10448800EFFF08BD08B51020FCF7EAFF08BD0000E3
:1044980008B50248FCF704FE08BD00BF9C010020D7
:1044A80008B52020FCF7DCFF8020FCF7D9FF4FF48B
:1044B8008070FCF7D5FF4FF40070FCF7D1FF08BD02
:1044C80008B50248FEF7EBFC08BD00BF70020020EB
:1044D80008B50248FEF7E3FC08BD00BF60010020F4
:1044E80008B54FF48060FCF7BBFF4FF40060FCF7A1
:1044F800B7FF4FF48050FCF7B3FF08BD0F49D1F860
:10450800883043F47003C1F888300D4B1A6842F0C4
:1045180001021A60002098601A6822F0847222F45E
:1045280080321A60074A5A601A6822F480221A6098
:10453800D8604FF000638B60704700BF00ED00E06B
:104548000038024010300024DFF834D0002103E0A6
:104558000C4B5B58435004310B480C4B42189A42A1
:10456800F6D30B4A02E0002342F8043B094B9A4277
:10457800F9D3FFF7C3FF01F0B7FCFFF781F97047E4
:1045880000000220FC640008000000207C000020DD
:104598007C00002010030020FEE7000000B510EEAC
:1045A800103A214A23F00043934283B01ADDB3F155
:1045B800FF4F04DB30EE400A03B05DF804FB6846A9
:1045C80000F00EFE00F00300012813D0022820D0CE
:1045D800B8B1DDED010A9DED000A00F051FFB1EE22
:1045E800400AE9E70020DFED110A01F0F3FA03B011
:1045F8005DF804FBDDED010A9DED000A00F040FFC7
:10460800DAE70120DDED010A9DED000A01F0E2FA8A
:10461800D2E70120DDED010A9DED000A01F0DAFA8A
:10462800B1EE400AC8E700BFD80F493F00000000BC
:1046380010B52DED028B284C8AB0B0EE408A00F000
:10464800E3F994F900300133F0EE408A34D0B4EE47
:10465800488AF1EE10FA2FD6B0EE480A01F00CFBAA
:10466800F7EE007AB4EEE70AF1EE10FA24DD012342
:104678001A4A009318EE100A002301920893FBF7D8
:1046880003FF02460B461648CDE90423CDE9022371
:1046980001F0EAFA94F90030022B8DED060B11D0E7
:1046A800684601F0DFFA68B1089B83B9DDE90601C5
:1046B800FBF742FF08EE900AB0EE680A0AB0BDECBC
:1046C800028B10BD01F00AFC21230360ECE701F026
:1046D80005FC089B0360E9E714000020046100085A
:1046E800106100082DE9F0432DED048BB14D8BB01E
:1046F800F0EE408AB0EE608A00F080FA95F900404A
:10470800631CB0EE409A30D0B4EE488AF1EE10FA4D
:104718002BD6F4EE688AF1EE10FA67D6DFEDA69A8A
:10472800F4EE698AF1EE10FA26D1B4EE698AF1EE58
:1047380010FA40F091800123A04A009318EE900AE5
:10474800002301920893FBF79FFECDE9020118EEC2
:10475800100AFBF799FE00220023CDE90401CDE9F8
:104768000623002C5FD0B7EE009AB0EE490A0BB0D2
:10477800BDEC048BBDE8F08301F086FA04460028FE
:1047880000F09A80B5EE409AF1EE10FAEDD1B0EE55
:10479800680A01F079FA0028E7D0B0EE480A01F07B
:1047A80073FA0028E1D00423844A009318EE900A93
:1047B800002308930192FBF767FECDE9020118EE8A
:1047C800100AFBF761FE95F9003000260027022B3E
:1047D800CDE90401CDE9066703D0684601F042FA45
:1047E80038BB01F07BFB2223036022E0B5EE408A50
:1047F800F1EE10FAB9D10123704A009318EE900A2D
:10480800002301920893FBF73FFECDE9020118EE61
:10481800100AFBF739FE6A4B0022022CCDE904018D
:10482800CDE906239FD0684601F01CFA002800F065
:104838008480089B1BB101F051FB089B0360DDE9F4
:104848000601FBF779FE09EE100AB0EE490A0BB033
:10485800BDEC048BBDE8F083B0EE480A01F014FA11
:10486800002882D0B5EEC08AF1EE10FA7FF57DAF50
:104878000123524A009318EE900A002308930192EC
:10488800FBF702FECDE9020118EE100AFBF7FCFD6A
:1048980095F90030CDE90401002B53D04949002097
:1048A800022BCDE9060151D101F018FB2123036049
:1048B800089B002BC3D0BEE7B0EE680A01F0E4F90C
:1048C80000283FF45FAFB0EE480A01F0DDF9002898
:1048D8003FF458AF18EE900AFBF7D6FD804618EE65
:1048E800100A8946FBF7D0FDB4EE499AF1EE10FAAA
:1048F80095F900606ED6F6EE007A03222F4B0894E5
:104908000092CDE90289CDE90401019328EE278AB6
:1049180016BB2D4BF5EEC08A4FF06042F1EE10FA4F
:10492800CDE9062324D4684601F09CF90028BFD1BC
:1049380001F0D4FA22230360BAE701F0CFFA212369
:10494800036076E700220023CDE90623684601F0DC
:1049580089F90028ACD1A7E71C4BF5EEC08A0022E4
:10496800F1EE10FACDE9062313D4022EE0D0DAE7EF
:10497800B0EE480A01F0DEF9B4EE480AF1EE10FA9A
:1049880014D0134B95F900604FF06042CDE906232F
:10499800EBE7B0EE480A01F0CDF9B4EE480AF1EEC3
:1049A80010FA03D0074B0022CDE9062395F90060E1
:1049B800DBE700BF14000020000000000C610008C5
:1049C8000000F03F0000F0FFFFFFEF470000F07F1E
:1049D800FFFFEFC701220B4B08940092CDE9028933
:1049E800CDE904010193002EACD0C9EEA97A17EEE7
:1049F800900AFBF749FD022ECDE906013FF454AFBA
:104A0800A4E700BF0C61000838B510EE105A25F075
:104A18000044B4F17E5F2DED048B68D060DCB4F106
:104A28007C5F0DDAB4F1485F6EDADFED647A70EE20
:104A3800277AB7EE007AF4EEC77AF1EE10FA53DC73
:104A480001F01AF9B7EE007A37EE400AB6EE008A9E
:104A580020EE088ADFED5A2ADFED5A3A9FED5A3ADE
:104A6800DFED5A4A9FED5A4ADFED5A5A9FED5A5ADE
:104A78009FED5A6ADFED5A6ADFED5A7AE8EE223A7C
:104A8800A8EE034AE3EE884AA4EE085AE4EE885AF0
:104A9800E5EE086AA5EE886AA6EE887AE6EE087A58
:104AA800B0EE480AB0EE479A67EE888A00F0E4FC58
:104AB8004D4B9C425BDDC8EE896A9FED4C7ADFED79
:104AC8004C7AA0EE260AF0EE006AA0EE267A37EEBF
:104AD800C70ABDEC048B002DD8BFB1EE400A38BD23
:104AE80070EE407A87EEA70ABDEC048B38BDDFED87
:104AF800417A9FED3F7A60EE277ABDEC048BE0EEB9
:104B0800077AB0EE670A38BD60EE007ADFED2C2A2E
:104B1800DFED2C3ADFED2D4A9FED2B3A9FED2C4A25
:104B2800DFED2C6A9FED2C5ADFED2C5A9FED2C6A95
:104B38009FED2C7AE7EEA23ABDEC048BE3EEA74A90
:104B4800A7EE834AE4EEA76AA4EE275AE6EEA75A30
:104B5800A5EE276AA5EEA77AF7EE006AE6EE276AC1
:104B680067EE277A87EEA67AA0EE070A38BD10EE20
:104B7800103A23F47F6323F00F0307EE903AB1EE67
:104B8800676AA6EE278A77EE807AC8EE895A88EE99
:104B9800275A9FED187ADFED187AF0EE006AA5EE35
:104BA800667A30EE000AB0EE675AA6EE265A90EE04
:104BB800257A37EE450A37EEC00A8AE7CAF2497104
:104BC80008EF1138047F4F3A2EC69D3D461124BD8B
:104BD800613330BFA80A4E3E2D57014090B0A6BEA3
:104BE80039D119C0ABAA2A3E9999793F2EBD3B33DA
:104BF800DB0FC93F2EBD3BB3DB0F493F2DE9F04723
:104C08002DED028B10EE903A82B033F000468DED18
:104C1800010A14D0DDF8048028F00047B7F1FF4FEF
:104C280007DD5A4802B0BDEC028BBDE8F04701F041
:104C38007BB8B6F1FF4F09DDB7F17E5FF1D1B7EE72
:104C4800000A02B0BDEC028BBDE8F087B8F1000F96
:104C580010EE904A2ADB4FF00009B6F1FF4F37D02B
:104C6800B6F17E5F3DD0B4F1804F1AD0019DB4F10A
:104C78007C5F9A4600EE105A3BD1B8F1000F6CDA0F
:104C880000F0FAFFB7F1FF4F00D0C7BBA7F17E577E
:104C980057EA090368D0B9F1010FD2D1B1EE400A41
:104CA800CFE7DDED017A27EEA70ACAE7B6F1974FFD
:104CB8001CDAB6F17E5F08DBF215C2F1960246FAFD
:104CC80002F101FA02F2B24253D04FF00009C7E7ED
:104CD800B7F17E5FB3D032DD002C23DB00EE103A53
:104CE800AFE7002C32DB9DED010AAAE74FF002097D
:104CF800B3E700F0C1FFB7F1FF4F16D0AFB1B7F17E
:104D08007E5F12D04FEAD873013B59EA030235D0CF
:104D1800B6F19A4F42DD1E4A974200F39481002C67
:104D2800C0F297819FED1B0A8BE7002CBCBFF7EE02
:104D3800007A87EE800AB8F1000F82DAA6E7002C25
:104D4800F0DA07EE903AB1EE670A7AE79DED017A5C
:104D5800F7EE007A87EE870A73E702B0BDEC028BA4
:104D6800BDE8F04700F088BB70EE407A87EEA70AEE
:104D780067E701F00101C1F1020971E707EE905AF6
:104D880077EEE77A87EEA70A5BE700BF10610008B5
:104D9800F7FF7F3F000000000000804BB7F5000FD1
:104DA80080F247815FED047A60EE277A6FF0170290
:104DB80017EE907AEA48F915C7F316077F39874244
:104DC800114447F07E5240F33681E648874240F36B
:104DD800B3819FEDE55A0131A2F50002F0EE453AA4
:104DE8000020F7EE006A04EE902A74EEA67AB7EE79
:104DF800007A87EE278A521042F0005202F580228C
:104E0800024434EEE67ADFEDD98A9FEDD92A9FED88
:104E1800D90ADFEDD90A9FEDD91ADFEDD91ADFEDEE
:104E2800D92A9FEDD93A27EE084A07EE902A24EEB0
:104E3800046AD64AA6EE282A14EE100A104005EE97
:104E4800900AA2EE060AB1EE652A77EEE66AA2EEAD
:104E5800277AF0EE607AE0EE067A74EEE64AF0EE33
:104E6800476AB0EE417AA7EE867AE2EE246AE7EE68
:104E7800061A66EE886A75EE847A26EE066A67EE8A
:104E8800A67AF0EE084AE6EE217AB0EE646AA5EE5C
:104E9800A56A07EE101A36EE276ADFEDBD1A16EE80
:104EA800101A114006EE101A76EE644AB8EEC77A68
:104EB800E2EE254A77EEE47A67EE847AE6EE267A21
:104EC800F0EE676AE5EE866A16EE901A114006EE75
:104ED800901AE2EE066A05EE901A77EEE67A67EE29
:104EE800A27AE5EE837A77EEA37AF0EE676AE5EECA
:104EF800A16A76EE856A76EE876A16EE901A1140F8
:104F080006EE901A36EEC77A37EE457AA5EEE17AC4
:104F180077EEC77A24F47F6424F00F0407EE10AA12
:104F280006EE104A67EE877A37EE466A07EE104AB1
:104F3800E6EE267A09F1FF3959EA030326EE877A65
:104F4800BFEE000A77EE876AB7EE006A16EE901A8F
:104F580014BFB0EE468AB0EE408A002921F0004323
:104F680040F38E80B3F1864F00F3838076D0B3F19F
:104F78007C5F00F39180002016EE903A23F47F6363
:104F880023F00F0306EE903A9FED826ADFED825A16
:104F98009FED823ADFED823A9FED822A9FED824AA9
:104FA800DFED824A9FED825A36EEC77AF0EE002A8C
:104FB80077EEC77A26EE867AA7EEA57AF7EE005A3C
:104FC800F0EE477AA6EE837A27EE076AF0EE471AE4
:104FD800E6EEC31AF0EE636AE6EE026A77EEE17A6D
:104FE800A6EE864AE7EE277AE4EE064AA4EE865A4B
:104FF800F0EE456AB0EE475AA6EEC65AF0EE456A9C
:1050080036EEE26A27EE055AC5EE066A76EEE77ACC
:1050180037EEC77A35EEC70A10EE103A03EBC053E5
:10502800B3F5000FC0F2988000EE103A20EE080A9F
:1050380007E60022BEE69FED4C5A0020F0EE453A06
:10504800F7EE006ACFE65B4A974244DD002C7FF713
:1050580069AE9FED590A20EE000AF2E59FED576A06
:1050680076EEC76A37EE866AB4EEE66AF1EE10FAB3
:1050780012DDDFED517A28EE270A20EE270AE0E557
:105088004F4A934261DC7FF472AF76EEC76AF4EE62
:10509800E76AF1EE10FA58DADB154FF400027E3BAE
:1050A80042FA03F30B44C3F3C752464C7F3A144108
:1050B800C3F3160023EA040306EE903AC2F117027E
:1050C80040F4000037EE667A10410029B8BF40422C
:1050D80077EE876A50E7F7EE007A30EE670ADFED81
:1050E800266ADFED397A9FED395A9FED396AF1EE7C
:1050F800405AB5EE007AE5EE876AB6EE007AA6EE7B
:10510800C07A60EE006A27EE267A67EEC77AE0EE8C
:10511800057AF0EE676AE0EE066A16EE902A22F447
:105128007F6222F00F0207EE102AA5EE867A06EEBD
:10513800902A77EEC77AEDE69FED265ADFED263AFC
:105148004FF40010F7EE086A4DE6DFED247A28EEFA
:10515800270A20EE270A74E500F04CFE66E700BF38
:1051680071C41C00D6B35D000000000042F1533E3C
:1051780055326C3E05A38B3EABAAAA3EB76DDB3E0B
:105188009A99193F4F38763FA0C39D3600F0FFFF2C
:105198000038763F8CBEBF351872313F0072313F00
:1051A8000EEADDB54CBB313355B38A38610B36BBDB
:1051B800ABAA2A3E0700803FCAF249713CAA38339D
:1051C80000001643FFFF7F003BAAB83F70A5EC36EE
:1051D80000AAB83F00C0153FDCCFD1356042A20D10
:1051E80070B510EE103A964A23F00044944286B007
:1051F800054669DD934A944210EE106A1ADC002BCA
:1052080024F00F04DFED907A904A64DD944270EE4A
:10521800677A00F0CF809FED8E7A77EEC76A01201B
:1052280077EEE67AC5ED006A77EEC77AC5ED017AC2
:1052380006B070BD874A944261DDB4F1FF4F80F239
:10524800B180E215863AA4EBC25307EE903ABDEE60
:10525800E77ADFED816AB8EEC77A77EEC77A8DED27
:10526800037A67EEA67ABDEEE77AB8EEC77A77EEEC
:10527800C77A8DED047A67EEA67AF5EE407AF1EEFC
:1052880010FACDED057A40F0C780B5EE407AF1EE20
:1052980010FA0CBF012302237049019102210091E9
:1052A80003A8294600F06EF9002E12DA95ED007A6F
:1052B800D5ED017AB1EE477AF1EE677A404285ED95
:1052C800007AC5ED017A04E0002285ED000A42600B
:1052D800002006B070BD944270EE277A00F08980F5
:1052E8009FED5B7A77EE876A4FF0FF3077EEE67ACC
:1052F800C5ED006A77EE877AC5ED017AE9E700F037
:10530800BBFCDFED576ADFED505A9FED517AF6EEA0
:10531800007AE0EE267AFDEEE77A17EE900AF8EECC
:10532800E76A1F28B1EE666AA6EE250A66EE877A56
:1053380052DD30EE677A17EE103AE415C3F3C7531F
:10534800E31A082B52DDDFED477A9FED477AF0EE3E
:10535800405AE6EE275A30EE650AA6EE270AF0EE26
:10536800407AD6EE877A35EEE77A17EE103AC3F32D
:10537800C753E41A192C51DC85ED007AB0EE650AA2
:1053880030EE470A002E30EE670A85ED010AA0DAF2
:10539800B1EE477AB1EE400A85ED007A85ED010A53
:1053A800404296E770EE407A0020C5ED017AC5EDDF
:1053B800007A8EE7DFED2B6A9FED2B7A77EEE67A9F
:1053C800012077EEC76A77EEE67AC5ED006A77EED8
:1053D800C77AC5ED017A7CE7421E244B53F8223088
:1053E80024F0FF029A4230EE677AA4D085ED007A65
:1053F800C6E7DFED1C6A9FED1C7A77EEA67A4FF0C0
:10540800FF3077EE876A77EEE67AC5ED006A77EEC9
:10541800877AC5ED017A5CE703233DE79FED147AAF
:105428009FED145AB0EE650AA6EE070A75EEC07A2B
:10543800E6EE077AD6EE857A30EE677AD6E700BFD1
:10544800D80F493FE3CB1640800FC93FD00FC93F63
:1054580043443537800F4943000080439461000876
:1054680084F9223F0044353708A3852E14610008CB
:1054780000A3852E32318D24B1EEC00A704700BFDB
:1054880010EE103A23F00043B3F1485F2CDAFDEE3A
:10549800C07A17EE903A002B5BD020EE007ADFED51
:1054A800314A9FED315ADFED315A9FED316ADFED18
:1054B800317ADFED316AA7EE245AE7EE055AA7EEF6
:1054C800256AE7EE067AE7EE276A66EE876A60EEF7
:1054D800C00AB6EE006AE7EE260AF7EE007AD7EEC3
:1054E800060A37EEE00A704720EE007ADFED1D4A23
:1054F8009FED1D5ADFED1D5A9FED1D6ADFED1D7AE8
:10550800DFED1D6A1D4AA7EE245A9342E5EE075ABD
:10551800A5EE876AE6EE077AE7EE876A66EE876A9F
:10552800D5DD174A934217DC03F17F4307EE903A23
:10553800B7EE006A36EE676A60EEC00AF6EE005A09
:10554800E7EE260AD7EE257A77EEE07A36EE670A96
:105558007047B7EE000A7047B6EE076AF5EE027AB2
:10556800EAE700BF4ED747ADF6740F317CF293B42B
:10557800010DD037610BB6BAABAA2A3D9999993E6D
:105588000000483F2DE9F04F2DED048BD7B003F113
:10559800FF390293D31E48BF131DB24C649D059179
:1055A800DB1023EAE37354F82560039303F1010841
:1055B800A2EBC80816EB09028646A3EB090316D42A
:1055C8001A449FEDA97A6598511C1AAA002BA4BF0A
:1055D80050F8234007EE904A03F10103ACBFF8EE00
:1055E800E77AF0EE477A8B42E2EC017AEED1029B41
:1055F800002E4FEA83044FEA860A1DDB1AAB1819FE
:1056080043AA7346191902EB0A0742ADF446B9F1E9
:10561800000FDFED957A09DB02466346F3EC016A79
:1056280032ED017A8B42E6EE877AF7D1E5EC017A22
:10563800BD4200F10400EAD1AAF1080306ADEB1857
:1056480004939FED8B9ADFED898A009605ABB346EC
:1056580074449A4442AF76464FEA8B0156AB0B44EA
:10566800BBF1000F13ED140A16DD07EB8B032A4676
:1056780060EE097AB0EE407AFDEEE77A73ED016AE2
:10568800F8EEE77ABB42A7EEE87A37EEA60ABDEE57
:10569800C77AA2EC017AEBD14046019100F0AAFB4F
:1056A800B0EE408AB4EE000A28EE000A00F0F6FADE
:1056B800F2EE007AA0EE678AB8F1000F0199FDEECC
:1056C800C89AF8EEE97A38EE678A40F3C4800BF19D
:1056D800FF3CC8F1080355F82C2042FA03F000FA01
:1056E80003F3D31A45F82C3019EE90CA8444C8F154
:1056F800070209EE90CA43FA02F2002A31DD19EED8
:10570800903ABBF1000F03F1010309EE903A40F320
:1057180029822868002840F08680BBF1010F0BD051
:10572800AE464FF0010C5EF8040F0CF1010300289F
:105738007CD19B459C46F6D1B8F1000F0EDDB8F13F
:10574800010F00F03281B8F1020F07D10BF1FF31E0
:1057580055F8213003F03F0345F82130022A00F0C4
:105768001281B5EE408AF1EE10FA40F09580009B68
:105778000BF1FF3C63450EDC0BF18041013905EB71
:105788008101002051F80439514540EA0300F9D15C
:10579800002840F01381009B013B55F82330002B73
:1057A80040F00081049B4FF0010C53F804290CF1E0
:1057B800010C002AF9D0DC440BF1010EE64530DC7F
:1057C800039B029A0EEB03015A4403EB0C0B1AAB32
:1057D80001F1804103EB8202659B013903EB8101F2
:1057E80007EB8E0E03EB8B0B51F8043F9FED1E7AEF
:1057F80007EE903AF8EEE77A1046B9F1000FE0ECC0
:10580800017A09DB334601E072ED017AF3EC016AB3
:10581800A342A6EEA77AF7D15945AEEC017A024623
:10582800E2D1E34618E701234FF0000CC0F5807081
:105838009B4545F82C000CDD55F82300294405EB61
:10584800830300E01868C0F1FF0043F8040B8B42A3
:10585800F8D1012070E70FD10BF1FF3355F8232061
:1058680012124AE7D86400080000000000008043D4
:105878000000803B0000C93FF6EE007AB4EEE78AEC
:10588800F1EE10FA80F25881B5EE408AF1EE10FA86
:105898004FF000023FF46BAFB0EE480AC8F10000C9
:1058A8009146009E00F0A6FA1FED107AB4EEC70AE2
:1058B800F1EE10FAC0F258815FED137A60EE277AA4
:1058C8000BF10103FDEEE77A08F10808F8EEE77A34
:1058D800A7EEC70AFDEEE77ABDEEC00A10EE102A61
:1058E80045F82B2017EE902A45F823204046B7EEBE
:1058F800000A009300F07EFA009B002BC0F24B8157
:10590800980042AA00F1040C1FED277A1044011DEB
:1059180005EB0C0272ED017AF8EEE77AAA4267EE1F
:10592800807A20EE070A61ED017AF3D10DF1B80E05
:105938001FED306A0546774603F101080024002E62
:10594800C0F20581A148DFEDA27A2946B0EE467A79
:10595800002203E0A24208DCB0EC017AF1EC016A13
:1059680001329642E6EE877AF4DA01344445E7ECF0
:10597800017AA5F10405E2D1649A032A53D8DFE835
:1059880002F0CAB6B65BB7EE000A30EE488A0028C5
:105998003FF4E7AE4046019200F02CFA019A38EE47
:1059A800408ADEE64FF0010C05E70BF1FF3155F8B0
:1059B800213003F07F0345F82130CFE6914655F8B2
:1059C8002C20009E6346A8F10808002A8ED10CF10D
:1059D8008042013A05EB820252F80419013BA8F112
:1059E80008080029F8D081E74A46DFED797A002ACD
:1059F80040F0C2809DED2E7A059A002BC2ED007A08
:105A080077EE677A0CDD2FA90122B1EC017A013219
:105A1800934277EE877AF8DA4B46002B40F0B8804D
:105A2800059BC3ED017A19EE903A03F0070057B0D1
:105A3800BDEC048BBDE8F08F002B40F3C4809800C8
:105A480056AA02440DF1B80E03F1804152ED286ABE
:105A580001390EEB830272ED017A37EEA67A96458C
:105A680077EEC77A82ED007A77EEA67AF0EE476A8B
:105A7800C2ED017AEFD1012B40F3A58056AB184453
:105A880089000B1D50ED286A73442FAA73ED017A23
:105A980037EEA67A9A4277EEC77A83ED007A77EEE8
:105AA800A67AF0EE476AC3ED017AEFD10831DFED4F
:105AB800487A0EEB01030EF1080E33ED017A9E458C
:105AC80077EE877AF9D14B46DDED2E6A9DED2F7A78
